:020000040800F2
:10000000C8070020910100082D22000825220008C1
:10001000292200086D0500084122000800000000A8
:100020000000000000000000000000003522000871
:100030007D05000800000000312200083922000878
:10004000AB010008AB010008AB010008AB010008E0
:10005000AB010008AB010008AB010008AB010008D0
:10006000AB010008AB010008AB01000871050008F6
:10007000AB010008AB010008AB010008AB010008B0
:10008000AB010008AB010008AB010008AB010008A0
:10009000AB010008AB010008AB010008AB01000890
:1000A000AB010008AB010008AB010008AB01000880
:1000B000AB010008AB010008AB010008AB01000870
:1000C000AB010008AB010008AB010008AB01000860
:1000D000AB010008AB010008AB010008AB01000850
:1000E000AB010008AB010008AB01000800F002F80A
:1000F00000F03FF80AA090E8000C82448344AAF183
:100100000107DA4501D100F034F8AFF2090EBAE880
:100110000F0013F0010F18BFFB1A43F0010318473B
:100120001433000034330000103A24BF78C878C17B
:10013000FAD8520724BF30C830C144BF04680C60ED
:10014000704700000023002400250026103A28BF35
:1001500078C1FBD8520728BF30C148BF0B60704739
:10016000642900F07D80002070471FB51FBD10B5C9
:1001700010BD00F02AF91146FFF7F7FF02F068F909
:1001800000F048F903B4FFF7F2FF03BC00F050F9A8
:100190000948804709480047FEE7FEE7FEE7FEE71B
:1001A000FEE7FEE7FEE7FEE7FEE7FEE70448054957
:1001B000054A064B704700003D220008ED0000088C
:1001C000C8010020C8070020C8030020C803002081
:1001D0000FB41CB5074B06AA7B44694600900598EE
:1001E00000F0DBF80020694600F0EAF81CBC5DF87E
:1001F00014FB0000E50100002DE9F0410E46044625
:10020000002020622046E168884730B3252805D0C9
:10021000D4E901219047206A401CF2E7E1682046BA
:1002200000278847050018D0A5F14100192802D8F9
:1002300020354FF400673246294620462760FFF7F5
:100240008FFF40B1012804D0F61D26F007060836BE
:10025000D8E7361DD6E72846DAE7206ABDE8F08100
:100260002DE9F0410646002410687529314616A58F
:1002700010D0AFF30080002802DA404213A507E057
:1002800031688A0701D512A502E0490704D511A5F6
:10029000012401E0AFF3008000210A2206F12407C7
:1002A00009E0B0FBF2FCB0FBF2F302FB1C003030C3
:1002B00078541846491C0028F3D123462A46304674
:1002C000BDE8F04100F00BB8000000002D00000078
:1002D0002B000000200000007047704770472DE998
:1002E000F0470D4699469246044600F124080168FD
:1002F000880604D5E06921F01001216000E00120AA
:10030000A84201DD471B00E00027A1697A1902EB32
:100310000900081AA0612078C00602D42046AFF375
:100320000080002608E0D4E901211AF80600904771
:10033000206A401C761C20624E45F4DB2078C00603
:100340000AD52046AFF3008006E0D4E90121302031
:100350009047206A401C2062381EA7F10107F4DC98
:1003600007E0D4E9012118F805009047206A401CF5
:100370002062281EA5F10105F3DC2046AFF30080C2
:100380002078000602D50220BDE8F0870120FBE7B7
:1003900001694A1C02610878704700B58FB0CDE949
:1003A00001310021059105497944CDE90310114639
:1003B0006846FFF721FF0FB000BD0000E5FFFFFF1B
:1003C0000A6802F8010B0A607047754600F02CF8C5
:1003D000AE4605006946534620F00700854618B032
:1003E00020B5FFF7E3FEBDE820404FF000064FF0D8
:1003F00000074FF000084FF0000BAC46ACE8C00916
:10040000ACE8C009ACE8C009ACE8C00921F00701BC
:100410008D46704710B50446AFF300802046BDE816
:100420001040FFF7AFBE00000048704740000020BA
:1004300001491820ABBEFEE726000200704700000D
:100440000146406A826A12F0500F03D0006A026BC4
:10045000084610470168826A42F400728262896825
:1004600001F46021B1F5602F01D1017B11B100F0E1
:1004700053B900BF816A21F480718162816AC90425
:1004800048BF00F049B9816A41F00101816200F082
:1004900043B90000406A816A41F040018162C16A4B
:1004A00041F00401C16200F04BB90000406A00F065
:1004B00045B90000B0B582B0044600200190216823
:1004C0008A68D2074FD1886840F00100886040F206
:1004D0003800C2F2000000684DF68361C4F21B319F
:1004E000A0FB0101880C01900198A0B1019801388E
:1004F0000190019878B1019801380190019850B1AC
:10050000019801380190019828B1019801380190B3
:1005100001980028EAD100F031FD21688968C907F7
:100520001CD1054603E000BF8068C0071AD100F067
:1005300025FD411B20680329F6D38168C907F3D143
:10054000A06A40F01000A062E06A40F00100E062A2
:10055000002084F82400012002B0B0BD002002B0C9
:10056000B0BD00BF002002B0B0BD0000FEE700003B
:1005700040F2EC00C2F2000000F070BA70470000D8
:10058000EFF3108072B600BFFEE7000010B581B037
:100590000022009290F82420012A03D1022108466B
:1005A00001B010BD4B680122062B80F8242017D81B
:1005B000D0F800C003EB83035A1F1F23DCF834E09C
:1005C00003FA02F40B682EEA040403FA02F222434F
:1005D000CCF83420092B03EB430219D936E000BFD5
:1005E000D0F800C00C2B03EB83021DD8233A1F2345
:1005F000DCF830E003FA02F40B682EEA040403FA94
:1006000002F22243CCF83020092B03EB43021DD821
:10061000DCF81030072489689440A34391401943C3
:10062000CCF81010002130E0413A1F23DCF82CE018
:1006300003FA02F40B682EEA040403FA02F22243DE
:10064000CCF82C20092B03EB4302E1D9DCF80CE0B9
:100650001E3A0724896894402EEA0404914023F04E
:1006600001022143102ACCF80C100DD142F20841AE
:10067000C4F20101A1F1080294450DD0816A41F054
:1006800020018162012100E00021002280F8242065
:10069000084601B010BD00BF0A68120230D40A68D3
:1006A000102B42F400020A602CD140F23801C2F251
:1006B000000109684DF68362C4F21B32A1FB0212ED
:1006C000910C01EB8101490000910099E1B1009981
:1006D000013900910099C9B100990139009100993F
:1006E000B1B1009901390091009999B1009901398E
:1006F0000091009900294FF00001E8D1C5E700BF43
:100700000021C2E70021C0E70021BEE70021BCE7CD
:100710000021BAE70021B8E7006842F20041C4F2C4
:100720000101884218BF704740F2A000C2F20000E9
:10073000D0E90312C0E905127047000070470000BD
:1007400070470000B0B5002800F0A8800446806A19
:1007500020B121688868C0070BD114E00020E06256
:1007600084F82400204600F09BF821688868C007C0
:1007700009D0886820F00100886000F0FFFB216844
:100780008A68D20726D1A06AC0063AD4A06A41F28C
:10079000021290430230A062E069D4E9013240EADB
:1007A000030C531EB3FA83F35D091346B2F5807F41
:1007B00018BF2B02207D257B01284CEA450030D153
:1007C00035B3A56A45F02005A562E56A45F0010547
:1007D000E56226E0054602E08868C007D3D000F055
:1007E000CDFB401B21680328F6D38868C007F3D0EF
:1007F000A06A40F01000A062E06A40F00100E062F0
:10080000A06AA06A40F01000A0620120B0BD00BF45
:10081000D4F818C04EF60005CFF6FF7505EB4C3541
:100820002B434D68B2F5807F25F4694543EA050303
:100830004B608B684FF2FD75CFF6E17503EA050357
:1008400043EA00038B6001D0012A07D1226900230B
:10085000CFF6F07303EB025201E000BF0022CB6A37
:1008600023F470031A43CA62896840F6FE62CFF629
:100870001F721140814207D10020E062A16A01226B
:1008800062F30101A162B0BDA06A40F0100020F047
:100890000200A062E06A40F00100E0620120B0BD09
:1008A00070B586B0044640F60000C4F2010021682D
:1008B00000F5E052002691420596049602D006B05B
:1008C00070BD00BF41F21801C4F202010A6842F48F
:1008D00000720A600A6802F400720192019A0A68C2
:1008E00042F004020A60096801F0040101910199D3
:1008F000062102910321039102A900F025FA40F29A
:10090000EC050820C2F20005C4F202004FF40072A8
:10091000C5E9000605F1100080214FF400634FF097
:10092000200C4FF4805E80E80C502846C5E9026137
:1009300000F064F9002818BFFFF722FE25626C6200
:1009400006B070BD70B515460446006842F6000258
:10095000C4F2010290420E4605D042F20041C4F2B8
:100960000101884209D142F20440C4F2010000684A
:1009700010F4702F1CBF012070BD94F824000128D2
:1009800004BF022070BD012084F824002046FFF738
:1009900091FD18B1002184F8241070BD42F204408A
:1009A0002168A26AC4F2010040F601739A4300F57F
:1009B0007F7302F580729942A26243D0A06A20F44C
:1009C0008010A0624868400504D5A06A012262F345
:1009D0000D30A062A26A0020D2044FF0000244BF92
:1009E000E26A22F00602E26284F82400206A40F201
:1009F0004142C0F6000240F2AD4340F2954C00F196
:100A0000280EC0F60003C0F6000C8EE80C106FF044
:100A100002020A608A682B4642F480728A604C3176
:100A2000324600F02FF92068816801F46022816865
:100A3000B2F5602F0CBF41F4A00141F48011816038
:100A4000002070BD026812F4702FB7D0A26A42F481
:100A50008012A26200684005BCD5B6E710B5D0E9A7
:100A60000FCE0168DCF800300A6823FA0EF35C0749
:100A70002AD512F0040427D00A68920603D40A6823
:100A800022F004020A602F22C4F20202914240F2D4
:100A90000402C4F202025BDD3023C4F20203994275
:100AA00072D04423C4F20203994273D05823C4F293
:100AB0000203994240F07A804FF480231360C16AA8
:100AC000002940F098806FE09C0727D512F00204BF
:100AD00024D00A68920606D40A6822F00A020A6044
:100AE000012280F821202F22C4F20202914240F21A
:100AF0000402C4F202023BDD3023C4F20203994235
:100B000060D04423C4F2020399425FD05823C4F258
:100B10000203994260D14FF4003365E01B0743D5CF
:100B200012F0080208BF10BD0A6822F00E020A6027
:100B3000012101FA0EF2CCF80420816380F8211023
:100B4000016B0022002980F8202054D12CE000BF46
:100B50000823C4F20203994222D01C23C4F20203E8
:100B6000994223D140231360C16A002943D11BE07D
:100B70000823C4F2020399422CD01C23C4F20203BE
:100B8000994229D120232FE04FF480631360C16A7A
:100B900089BB09E04FF480431360C16A59BB03E08D
:100BA00004231360C16A31BB10BD00BF02F16804A9
:100BB0004FF08063A14208BF4FF480031360C16A05
:100BC000C9B9F1E74FF400730EE000BF4FF40053D2
:100BD0000AE000BF022307E002F168044FF000734F
:100BE000A14208BF4FF400131360816A002200295C
:100BF00080F82020D8D0BDE81040084701460028E2
:100C00004FF0010008BF70472DE9F043D1F800C054
:100C10004FF6F873CBF6FD734CF6CD426344CCF639
:100C2000CC42A3FB02236FF0030707EA93030027DC
:100C3000C4F2020701F10C09C1E90F730223D1E9E3
:100C4000012E99E87002D1F81C8081F82130DCF87F
:100C5000003043F6F077BB431A4342EA0E022243C8
:100C60002A43324342EA090242EA0802CCF8002051
:100C700000228A6381F8210081F820200020BDE84D
:100C8000F0437047F0B590F820C0BCF1010F32D0AE
:100C90004FF0010E80F820E090F821C0BCF1010F68
:100CA00026D14FF0020C80F821C04FF0000CC0F8A4
:100CB00038C0D0E900C4C56AC66BDCF80070102CDF
:100CC00027F00107CCF80070006C0EFA00F070609D
:100CD0000846CCF8043004BF10460A46CCF8080099
:100CE000CCF80C20DCF8000045B140F00E000DE01F
:100CF000002180F820100220F0BD00BF20F0040089
:100D0000CCF80000DCF8000040F00A00CCF800004D
:100D1000DCF8000040F00100CCF800000020F0BD3D
:100D2000B0B5044600F02AF9054640F23000C2F2A0
:100D300000000078611C18BF044400BF00F01EF9D9
:100D4000401BA042FAD3B0BD2DE9F04F82B00E682F
:100D5000002E00F0038141F20042C4F2010204239C
:100D600040F2004E904208BF03234FF6FF7CC4F2CE
:100D7000010E009300240123C1F2100C4FF0000A71
:100D80004FF0000949E000BF012704F00C030F22D7
:100D90009A402BEA020207FA03F34FEA9A051A4334
:100DA00046F82520D1F804B040F20C455FEACB228A
:100DB000DEF8082054BF22EA080242EA0802C4F220
:100DC0000105CEF808202A685FEA8B2354BF22EA87
:100DD000080242EA08022A605FEA8B33DEF8042048
:100DE00054BF22EA080242EA08025FEACB33CEF897
:100DF0000420DEF800204FF0010354BF22EA08026D
:100E000042EA0802CEF800200E680AF1010A36FA1A
:100E10000AF204F1040400F0A18003FA0AF816EAC9
:100E2000080FF1D04E68664512DC122E56D8DFE866
:100E300006F0350B4549555555555555555555559C
:100E40005555554D510000BFD1F80C9046E000BFFC
:100E50004FF6FF72C1F2210296420FDC0022C1F26E
:100E6000110296421AD00022C1F21202964215D007
:100E70000022C1F22102964210D02FE00022C1F2DE
:100E8000220296420AD00022C1F23102964205D0D7
:100E90000022C1F23202964220D100BF8A684AB1D4
:100EA000012A14BFC0F81480C0F810804FF0080960
:100EB00014E000BF4FF0040910E000BFCA6802F15F
:100EC00008090BE04FF0000908E000BFCA6802F112
:100ED000040903E0CA6802F10C0900BF2246064675
:100EE000BAF1080F24BF203A043637680F25954021
:100EF00027EA050509FA02F22A433260CA79D206C6
:100F00007FF582AF41F21803C4F202031A68AEF50E
:100F10007E7642F001021A601A6802F00102019224
:100F2000019A2AF0030256F802B040F60002C4F219
:100F30000102904210D040F60042C4F201029042F9
:100F40003FF422AF41F20002C4F20102009F90423E
:100F500008BF022719E700BF002716E702B0BDE867
:100F6000F08F00008068084018BF01207047000023
:100F7000002A08BF090401617047000040F2C01058
:100F8000C2F200000068704740F2300040F2C01129
:100F9000C2F20000C2F2000100780A681044086042
:100FA0007047000080B542F20000C4F20200016800
:100FB00041F010010160032000F08EF80F2000F0D6
:100FC00005F800F027F8002080BD000070B540F261
:100FD0003006C2F2000640F238013278C2F2000157
:100FE0004FF47A730968B3FBF2F20446B1FBF2F1F5
:100FF000084600F0C1FB0F2C4FF0010508D838B9A6
:101000004FF0FF3021460022002500F039F87460CF
:10101000284670BD82B041F21800C4F20200016897
:10102000022241F001010160016801F0010101911A
:101030000199416841F080514160406800F0805062
:10104000009000980420C4F20100016862F31A6164
:10105000016002B070470000002848BF7047C1B26D
:1010600000F01F00012202FA00F04EF20012CEF250
:10107000000242EAD10121F003010860704700003C
:1010800010B54EF60C5CCEF2000CDCF80030C3F369
:10109000022E8EF00704042C28BF0424BEF10303A3
:1010A0004FF0FF3E0EFA04F438BF0023A1439940ED
:1010B0000EFA03F39A43114300F00F0200F160436C
:1010C0000901043A03F564436244002848BF02F171
:1010D0000C03197010BD00004EF60C51CEF2000149
:1010E0000A684FF6FF031A4060F30A2242F080605C
:1010F00040F0FD70086070472DE9F04182B0044671
:10110000007841F21C06C007C4F202064AD03068DB
:1011100010F0805808D1306840F08050306030685E
:1011200000F080500190019847F20007C4F20007D8
:101130003868C00512D4386840F480703860FFF712
:101140001DFF05463868C00508D4FFF717FF401B90
:101150006428F7D9032002B0BDE8F081706810F46C
:10116000407012D0616801F4407188420DD07068FF
:1011700040F24042C4F24222012320F44071136045
:101180000023C007136071602AD17068616820F481
:1011900040700843B8F1000F706003D1306820F050
:1011A000805030602068810707D556F8181CA26867
:1011B00021F44041114346F8181CC00604D4002015
:1011C00002B0BDE8F08100BF56F8180CE16820F4C9
:1011D0008000084346F8180C002002B0BDE8F081FA
:1011E000FFF7CCFE054641F2883700BF70688007E4
:1011F000CBD4FFF7C3FE401BB8424FF00300F5D934
:10120000EBE700002DE9F04381B0002800F0858075
:1012100042F20008C4F202080446D8F800000D4665
:1012200000F0070088420CD2D8F8000020F0070038
:101230002843C8F80000D8F8000000F00700A842D2
:101240006BD1206841F204098107C4F2020917D565
:10125000410705D5D9F8001041F4E061C9F8001044
:10126000010705D5D9F8001041F46051C9F8001004
:10127000D9F80010A26821F0F0011143C9F800105C
:10128000C00741D1D8F8000000F00700A8420CD9EF
:10129000D8F8000020F007002843C8F80000D8F86C
:1012A000000000F00700A84237D12068410707D5A9
:1012B000D9F80010E26821F4E0611143C9F8001088
:1012C000000708D5D9F80000216920F4605040EAF1
:1012D000C100C9F80000D9F8002002F00C0008286D
:1012E00041F20020C0F27A0050D143F26E33C2F3D3
:1012F0008341C0F60003595CD2033BD440F6001092
:10130000C0F23D00484341E0606802280AD001284D
:101310002AD159F8041C890308D4012001B0BDE882
:10132000F08300BF59F8041C8901F6D5D9F80010E4
:1013300021F003010843C9F80000FFF71FFE06462D
:1013400041F28837D9F80000616800F00C00B0EB7A
:10135000810F97D0FFF712FE801BB842F2D903200D
:1013600001B0BDE8F08300BF59F8041C8907D4D54B
:10137000DCE700BFD9F8002043F26C33C2F34042EF
:10138000C0F600039A5C4843B0FBF2F0D9F80010B5
:1013900043F25C32C1F30311C0F60002515C40F22B
:1013A000380220FA01F140F23400C2F20000006875
:1013B000C2F200021160FFF709FE002001B0BDE893
:1013C000F08300002DE9F04182B0002868D0044687
:1013D000007841F20006C007C4F2020625D070680A
:1013E00000F00C0004281BD0706800F00C000828E6
:1013F00002D17068C00313D46068002800F06881CF
:10140000B0F5A02F00F07C81B0F5803F00F07C812A
:10141000306820F480303060306820F4802076E13D
:101420003068800301D56068D0B32078800718D574
:10143000706810F00C0F07D0706800F00C000828DE
:101440006ED17068C0036BD43068800702D5206904
:10145000012825D13068616920F0F80040EAC10018
:101460003060207800071FD42078400732D4E56927
:1014700095B1706800F00C00082840F08F80012DB5
:101480000ED07068216A00F480328A4208D1616A05
:1014900000F47010884203D1002002B0BDE8F08152
:1014A000012002B0BDE8F081A069002862D00020D0
:1014B000C4F242200121C0F88014FFF75FFD054609
:1014C000706A800700F18C80FFF758FD401B0228EE
:1014D000F6D92AE1F06910F0805808D1F06940F09F
:1014E0008050F061F06900F080500090009847F261
:1014F0000007C4F200073868C00529D4386840F4F2
:1015000080703860FFF73AFD054600BF3868C005B7
:101510001ED4FFF733FD401B6428F7D905E100BF57
:101520002069002840F20000C4F2422000F08280CE
:1015300001210160FFF722FD054600BF30688007EA
:101540003FF588AFFFF71AFD401B0228F6D9ECE003
:10155000E068002800F08080052800F097800128CE
:1015600000F09880306A20F001003062306A20F08C
:10157000040092E00020C4F242200021C0F8801450
:10158000FFF7FCFC054600BF706A80077FF56CAF73
:10159000FFF7F4FC401B0228F6D9C6E00027C4F28E
:1015A000422700203866FFF7E9FC022D05460BD1E3
:1015B0003068800140F1BE80FFF7E0FC401B02284C
:1015C0004FF00300F4D968E7306880017FF564AF1D
:1015D000FFF7D4FC401B02284FF00300F4D95CE76E
:1015E00040F23800C2F20000006844F6D351C1F264
:1015F0006201A0FB0101480A019000BF00BF0198F1
:10160000411E002801913FF42FAF00BF0198411EF9
:10161000002801913FF428AF00BF0198411E002827
:1016200001913FF421AF00BF0198411E00280191B4
:10163000E4D119E700210160FFF7A0FC054600BFD7
:10164000306880077FF50DAFFFF798FC401B02283C
:101650004FF00300F4D920E7306A20F00100306237
:10166000306A20F004003062FFF788FC054641F242
:10167000883700BF306A800720D5FFF77FFC401B0A
:10168000B8424FF00300F5D907E700BF306A40F0D9
:1016900004003062306A40F001003062FFF76EFCF7
:1016A000054641F2883700BF306A800706D4FFF74D
:1016B00065FC401BB842F7D937E000BFB8F1000F16
:1016C0007FF4D5AEF06920F08050F061CFE600BF26
:1016D000306820F480303060306820F48020306042
:1016E000FFF74CFC054600BF306880037FF59DAED8
:1016F000FFF744FC401B64284FF00300F4D9CCE60C
:10170000306840F480203060306840F480303060D1
:10171000FFF734FC054600BF306880033FF585AE17
:10172000FFF72CFC401B6428F6D9032002B0BDE86B
:10173000F08100BF206AB0F5803F05D17168A268D2
:1017400021F40031114371607168626A21F47411EF
:1017500011430843706001203866FFF70FFC044610
:10176000306880013FF598AEFFF708FC001B0228A7
:101770004FF00300F4D990E6411E0020B0EB116F4A
:101780001CBF012070474EF21002CEF200025160E1
:101790004EF62351CEF20001F0230B70072190602A
:1017A00011607047B0B590F83C20012A04BF0220B8
:1017B000B0BD01F108053CCDD1E900CE23F47C5346
:1017C00022F470521A432EF4F0431A432CF4E043EF
:1017D0001A4324F4C0431A432A43C96922F48042BD
:1017E000036811435964002180F83C100846B0BDDD
:1017F00010B590F83C20012A4FF0020233D080F857
:101800003D200268D2F804E0D2F808C00C682EF03F
:101810007003234340F2FF74C4F20004A2425360F9
:101820000ADCB2F1804F13D040F20043C4F200034F
:101830009A420DD011E000BF42F60043C4F201030A
:101840009A4205D040F60003C4F200039A4204D144
:1018500049682CF08003194391600121002280F82F
:101860003D1080F83C20104610BD000041B1082911
:1018700010D0042914BF00F1450200F143020BE02F
:1018800090F84220012A1CBF01207047022280F8F4
:10189000422013E000F144021278012A1CBF01200B
:1018A00070470222082907D0042914BF80F8452078
:1018B00080F8432002E000BF80F84420006801F077
:1018C0001F010422036A02FA01F123EA0102026203
:1018D000026A11430162416C40F2FF72C4F20002DD
:1018E00041F40041904241640ADCB0F1804F13D0D2
:1018F00040F20041C4F2000188420DD013E000BF65
:1019000042F60041C4F20101884205D040F60001D0
:10191000C4F20001884206D1816801F0070106295E
:1019200004BF00207047016841F001010160002000
:101930007047000010B5026801F01F0E4FF0040C54
:10194000146A0CFA0EF324EA03031362136A136297
:10195000146A41F211131C4206D1D2F820C040F2A1
:1019600044441CEA040F0DD0146A1C4211D1136ABE
:1019700040F2444423420CD1136823F00103136066
:1019800007E000BF546C24F400445464146A1C4201
:10199000EDD008290CD0042910D000294FF0010106
:1019A00014BF80F8451080F84210002010BD00BF21
:1019B000012180F84410002010BD00BF012180F8F3
:1019C0004310002010BD0000002804BF0120704714
:1019D00010B5044690F83D0028B9002084F83C007A
:1019E000204600F067F8022084F83D00206840F2AD
:1019F000FF730268C4F2000342F6004C9842C4F23E
:101A0000010C15DCB0F1804F1AD040F20041C4F255
:101A10000001884214D0984218DCB0F1804F1DD0EC
:101A200040F20041C4F20001884217D01AE000BF22
:101A3000604505D040F60001C4F200018842EAD1B9
:101A4000A16822F070020A439842E6DD604505D0A5
:101A500040F60001C4F20001884203D1216922F45A
:101A600040720A43A36922F08001D4F804E0E268DE
:101A7000194360450160C262C0F828E002D1616983
:101A8000CCF8301001214161002084F8461084F820
:101A90003E1084F83F1084F8401084F8411084F818
:101AA000421084F8431084F8441084F8451084F8F8
:101AB0003D1010BD81B00068B0F1804F02D001B080
:101AC000704700BF41F21C00C4F20200016841F0FF
:101AD00001010160006800F001000090009801B071
:101AE0007047000090F83D1001291CBF012070478D
:101AF000022180F83D10006840F2FF71C4F200013D
:101B0000884209DCB0F1804F12D040F20041C4F2AB
:101B1000000188420CD012E042F60041C4F20101FB
:101B2000884205D040F60001C4F20001884206D187
:101B3000816801F00701062904BF00207047016891
:101B400041F00101016000207047000080B590F86D
:101B50003C20012A4FF0020200F0C28080F83D20B4
:101B6000D0F800C04FF67772DCF8083023EA0202A2
:101B7000CCF808200B684F2B28DC1F2B44DD202BD2
:101B800045D0302B43D0402B40F0AC80D1F804E05E
:101B9000C968DCF82030DCF8202022F00102CCF803
:101BA0002020DCF8182022F0F00242EA011123F094
:101BB0000A0242EA0E02CCF81810CCF82020DCF819
:101BC000081041F0470121F0300180E06F2B27DD44
:101BD000B3F5005F48D0B3F5805F7AD0702B40F04A
:101BE0008180D1E901E3C968DCF8082043EA0E03EB
:101BF00022F47F4243EA01211143CCF80810DCF8BB
:101C0000081041F0770162E00BB1102B6AD1DCF8CB
:101C1000081021F07001194341F0070157E000BF9F
:101C2000502B35D0602B5DD1D1F804E0C968DCF8C9
:101C30002030DCF8202022F01002CCF82020DCF844
:101C4000182022F4704242EA013123F0A00242EA55
:101C50000E12CCF81810CCF82020DCF8081041F057
:101C6000670121F0100132E0D1E901E3C968DCF835
:101C7000082043EA0E0322F47F4243EA0121114384
:101C8000CCF80810DCF8081041F480411FE000BFD8
:101C9000D1F804E0C968DCF82030DCF8202022F01C
:101CA0000102CCF82020DCF8182022F0F00242EAF1
:101CB000011123F00A0242EA0E02CCF81810CCF807
:101CC0002020DCF8081041F0570121F02001CCF869
:101CD00008100022012180F83D10002180F83C10FE
:101CE000104680BD0122F5E770B586B040F60004CD
:101CF000C4F20104006804F51052002190420491DE
:101D000002D006B070BD00BF41F21800C4F202005C
:101D1000016802AD41F0080101600168022601F08E
:101D2000080101910199016841F004010160006816
:101D3000294600F00400019001984FF400500290F1
:101D400004F5806003960596FEF7FEFF4FF4807061
:101D5000CDE90206204629460596FEF7F5FF06B0B6
:101D600070BD00002DE9F04390F83C30012B04BF1A
:101D70000220BDE8F0834FEAB202032A3CD8DFE834
:101D800002F0034381BD00BF036842F600461D6AAE
:101D90001A6AC4F2010622F001021A621A465C684D
:101DA00052F818CFB3428E68D1F800E025F0020552
:101DB00045EA06050CD1CE68D1E9057824F44074D3
:101DC00025F00C0526F004063C43354344EA08049C
:101DD0002CF0730747EA0E075C609F614F68096942
:101DE0005F631D629F6947F008079F619F6927F045
:101DF00004079F61B2E000BF0121002280F83C206F
:101E00000846BDE8F08300BF036842F600461D6A3D
:101E10001A6AC4F2010622F010021A621A46D3F8B6
:101E200004C052F8184FB3428E68D1F800E025F094
:101E3000200545EA061510D1CE68D1E9058725F0C1
:101E4000C0096FF0400505EA06152CF4406647EA24
:101E5000080745EA090546EA870C24F4E64444EA03
:101E60000E27C3F804C09F614F6809699F631D6214
:101E70009F6947F400679F619F6927F480679F61AE
:101E80006BE000BF036842F600461D6A1A6AC4F29E
:101E9000010622F480721A621A46D3F804C052F87E
:101EA0001CEFB3428E680C6825F4007545EA0625E0
:101EB00011D1CE68D1E9058725F44069360240F298
:101EC000FF4526EA05052CF4405647EA080745EA8F
:101ED000090546EA071C2EF073072743C3F804C020
:101EE000DF614F680969DF631D62DF6947F008073A
:101EF000DF61DF6927F00407DF612FE0036842F646
:101F00000047D3F820C01A6AC4F2010722F48052B5
:101F10001A621A465C6852F81C5FD1F800E08E68BD
:101F2000BB4204D14F6924F4804444EA87142CF462
:101F3000005747EA063725F4E64646EA0E265C6077
:101F4000DE614E6809691E641F62DF6947F400673D
:101F5000DF61DF6927F48067DF61090213681943D5
:101F600011600021002280F83C200846BDE8F08383
:101F7000002804BF0120704710B5044690F83D00CA
:101F800028B9002084F83C00204600F067F80220C1
:101F900084F83D00206840F2FF730268C4F2000339
:101FA00042F6004C9842C4F2010C15DCB0F1804FAF
:101FB0001AD040F20041C4F20001884214D0984285
:101FC00018DCB0F1804F1DD040F20041C4F2000196
:101FD000884217D01AE000BF604505D040F60001E6
:101FE000C4F200018842EAD1A16822F070020A43DB
:101FF0009842E6DD604505D040F60001C4F20001DC
:10200000884203D1216922F440720A43A36922F075
:102010008001D4F804E0E268194360450160C262BF
:10202000C0F828E002D16169CCF83010012141618B
:10203000002084F8461084F83E1084F83F1084F89D
:10204000401084F8411084F8421084F8431084F85A
:10205000441084F8451084F83D1010BD81B000682C
:1020600042F60041C4F20101884201D001B070473C
:1020700041F21800C4F20200016841F400610160FD
:10208000006800F400600090009801B07047000004
:1020900041B1082910D0042914BF00F1410200F118
:1020A0003F020BE090F83E20012A1CBF0120704740
:1020B000022280F83E2013E000F140021278012A4B
:1020C0001CBF012070470222082907D0042914BF31
:1020D00080F8412080F83F2002E000BF80F84020D7
:1020E000006801F01F010122036A8A4023EA02010D
:1020F0000162036A42F64441C4F201011A43A1F1AC
:102100004403984202620FD040F2FF71C4F2000112
:10211000884213DCB0F1804F1CD040F20041C4F281
:102120000001884216D01CE00A6842F400420A60AE
:1021300040F2FF71C4F200018842EBDD42F600413B
:10214000C4F20101884205D040F60001C4F200014A
:10215000884206D1816801F00701062904BF0020EA
:102160007047016841F001010160002070470000E4
:1021700080B5026801F01F0C012303FA0CFE136AFC
:1021800042F6444C23EA0E03C4F2010C1362D2F867
:1021900020E0ACF144039A42C2F820E013D15CF88D
:1021A00024EC41F211131EEA030F0CD1D2F820E007
:1021B00040F244431EEA030F05D1DCF8003023F45B
:1021C0000043CCF80030D2F820C041F211131CEAD1
:1021D000030F06D1D2F820C040F244431CEA030F9B
:1021E00014D0082918D004290AD000294FF0010181
:1021F00014BF80F8411080F83E10002080BD00BF61
:10220000012180F83F10002080BD00BF136823F03B
:10221000010313600829E6D1012180F84010002055
:1022200080BD0000FEE70000FEE70000FEE70000C2
:102230007047000070470000FEF7A6BE7047000020
:10224000FEE700002DE9F04381B040F2000440F2C7
:10225000A005C2F2000443F27E3843F28B37C2F28B
:1022600000054FF06409C0F6000804F12006C0F62E
:10227000000700BF0020002100F0BCF8686941465B
:1022800000FB09F0020B2046FDF7A2FF204600F0FC
:10229000C9F80120002100F0ADF8A869394600EB2B
:1022A0008000020B3046FDF793FF304600F0BAF88D
:1022B0006869B0F5166FDDD90020002100F09AF8AA
:1022C00008A000F0AFF80120002100F093F80AA068
:1022D00000F0A8F840F6C41001B0BDE8F043FEF7E6
:1022E0001FBD00BF4865646566204172616C696B03
:1022F00074612020000000004D656E7520676563E5
:102300006973000080B50020002100F0D1FF01209A
:10231000002100F0CDFF0220BDE88040FEF700BDA7
:1023200080B53220FEF7FCFC0320002100F0C0FF46
:102330000020002100F0BCFF0520FEF7F1FC032087
:10234000002100F0B5FF0020002100F0B1FF0120C6
:10235000FEF7E6FC0320002100F0AAFF0020002188
:1023600000F0A6FF0A20FEF7DBFC0220002100F0AF
:102370009FFF0020002100F09BFF0A20FEF7D0FC09
:102380000220002100F094FF0820002100F090FFBF
:102390000120FEF7C5FC0020002100F089FF082085
:1023A000002100F085FF0120FEF7BAFC002000218B
:1023B00000F07EFF0120002100F07AFF0120FEF7EF
:1023C000AFFC0120FEF7ACFC0020002100F070FF04
:1023D0000620002100F06CFF0120FEF7A1FC002088
:1023E000002100F065FF0C200021BDE8804000F0D6
:1023F0005FBF000010B501280C4605D0002808BFBB
:1024000044F0800402E000BF44F0C004E0B20009E0
:10241000002100F04DFF04F00F000021BDE8104046
:1024200000F046BFB0B50478002C08BFB0BD451E13
:10243000E0B20009012100F03BFF04F00F00012190
:1024400000F036FFAC780135002CF1D1B0BD0000B2
:1024500096B0FEF7A7FD00240120CDE90944CDE99F
:102460000744049008904FF4E0104FF480310225A7
:102470000D9004A80394CDE90144CDE90514CDE9FC
:102480000B51FEF79FFF28B1EFF3108072B600BF2B
:10249000FEE700BF0F20CDE90E054FF48060CDE9C7
:1024A00011040EA802211094FEF7ACFE20B1EFF348
:1024B000108072B6FEE700BF4FF400404FF00209F3
:1024C00002906846CDF80090FEF716FE20B1EFF3BB
:1024D000108072B6FEE700BF41F21804C4F2020495
:1024E000206840F6004840F0200020602068C4F2D8
:1024F000010800F02000049004982068A8F5806688
:1025000040F004002060206841F6F84100F004002B
:10251000049004982068002240F0080020602068A1
:1025200041F6F84500F00800049004983046002772
:10253000FEF71EFD4046032100224FF0030AFEF77E
:1025400017FD049504AD4FF0010B30462946CDE947
:1025500005B7CDF81C90FEF7F7FB40462946CDE9BC
:1025600004ABCDE90679FEF7EFFB782004A981E8FA
:10257000810240462946FEF7E7FB8020CDE90407AB
:10258000404629460697FEF7DFFB54F8040C00216D
:1025900040F0010044F8040C54F8040C002200F050
:1025A0000100049004980B20FEF76AFD0B20FEF753
:1025B00053FD40F27810C2F200004FF080414FF618
:1025C000FE730797CDE90577CDE90E77472280E8BE
:1025D0008600C0E903378761FFF7F6F920B1EFF312
:1025E000108072B6FEE700BF4FF48050049040F2B6
:1025F0007810C2F2000004A9FFF7A8FA20B1EFF3A7
:10260000108072B6FEE700BF40F27810C2F2000000
:102610000EA9FFF7EDF828B1EFF3108072B600BFF6
:10262000FEE700BF40F23010002108F50052C2F270
:10263000000040F23633CDE900110A91C0E90021D3
:10264000C0E90213C0E904118161FFF791FC28B1D0
:10265000EFF3108072B600BFFEE700BF40F230100B
:10266000C2F200006946FFF7C3F828B1EFF310800B
:1026700072B600BFFEE700BF60200E9040F29B10D4
:102680000F9040F230100024C2F200000EA9002288
:10269000CDE91044CDE912441494FFF763FB28B14F
:1026A000EFF3108072B600BFFEE700BF2020CDE937
:1026B00007044FF40050099040F23010C2F20000BD
:1026C00004A9CDE9044406940B94FFF76BF828B1F4
:1026D000EFF3108072B600BFFEE700BF40F230108B
:1026E000C2F20000FFF700FB40F2A005C2F20005B5
:1026F00008F5C051284640F81C1F4FF48071012492
:1027000000224FF46023022604730275C361C0E9FE
:1027100001210661FEF716F820B1EFF3108072B6C2
:10272000FEE700BFCDE9044405F11C0404A92046DE
:102730000696FDF72BFF18B1EFF3108072B6FEE797
:102740000220CDE9040004A92046FDF71FFF18B1BF
:10275000EFF3108072B6FEE740F27810C2F200008C
:10276000FFF7C0F942F62C40C4F2010001680222D2
:10277000A96000684AF20021C0F24A41B1FBF0F0C2
:1027800005F10C0168602046FEF7DCF8FFF7C8FD94
:1027900000200021FFF72EFE10A0FFF743FE40F2BD
:1027A000DC50FEF7BDFAFFF7ADFD00200021FFF77A
:1027B00021FE0CA0FFF736FE01200021FFF71AFED4
:1027C0000CA0FFF72FFE41F28830FEF7A9FAFFF7C1
:1027D00099FDFFF737FD00F013F800BF4D657268F3
:1027E0006162610053697374656D204B6F6E747222
:1027F0006F6C00004564696C69796F7200000000BD
:1028000040F6004440F2A0074AF6AB2543F2A83850
:1028100043F2983943F2B83AC4F20104C2F2000715
:10282000C2F6AA25C0F60008C0F60009C0F6000AE4
:102830004FF0050B07E000BF20462021FEF792FB7A
:10284000012800F06B8020460821FEF78BFB012851
:1028500012D13868013080FB051202EBD27101EB16
:102860004101A0EB41000528386053D8DFE800F0B3
:1028700016442830363E00BF20461021FEF772FB7A
:102880000128D9D1386800282ED0013805283860B1
:1028900040D8DFE800F00331151D232BFFF732FD90
:1028A00000200021FFF7A6FD43F2CD30C0F6000066
:1028B000FFF7B8FD43F2C2360120C0F6000623E060
:1028C000FFF720FD43F217460020C0F600061BE08C
:1028D000FFF718FD0020464616E000BFFFF712FD87
:1028E00000204E4610E000BFC7F800B0FFF70AFD19
:1028F0000020564608E000BFFFF704FD43F20F46F4
:102900000020C0F6000600BF0021FFF773FD30462F
:10291000FFF788FD6420FEF703FA94E7386800F0BB
:1029200051F8000010B540F2A000C2F200000068AB
:10293000052888BF10BDDFE800F003151D252D35E3
:10294000FFF7E0FC00200021FFF754FD43F2CD30FB
:10295000C0F60000FFF766FD43F2C234C0F6000483
:10296000012026E0FFF7CEFC43F20F44C0F600043E
:1029700000201EE0FFF7C6FC43F21744C0F6000437
:10298000002016E0FFF7BEFC43F2A834C0F60004B6
:1029900000200EE0FFF7B6FC43F29834C0F60004C6
:1029A000002006E0FFF7AEFC43F2B834C0F60004A6
:1029B00000200021FFF71EFD2046BDE81040FFF774
:1029C00031BD000040F600440528C4F2010400F2C5
:1029D000E3800FF66005DFE810F00700E500E30094
:1029E0008D010902570300BFFFF78CFC40F2000085
:1029F00042F62C4A4AF2002B40F2A009C2F2000033
:102A0000C4F2010AC0F24A4BC2F2000900F11005FB
:102A10000FF6740800F120070FF678060020002159
:102A2000FFF7E8FCDAF800004146BBFBF0F228466D
:102A3000C9F80420FDF7CCFB2846FFF7F3FC012082
:102A40000021FFF7D7FCD9F81800314600EB8000D1
:102A5000020B3846FDF7BCFB3846FFF7E3FC204687
:102A60004021FEF77FFA0128D8D1FFF74BFC002068
:102A70000021FFF7BFFC43F20140C0F60000FFF762
:102A8000D1FC4AF6AB2743F2A83843F2983A43F216
:102A9000B83BC2F6AA27C0F60008C0F6000AC0F686
:102AA000000B052507E000BF20462021FEF75AFA5B
:102AB000012800F0BB8320460821FEF753FA0128C5
:102AC00014D1D9F80000013080FB071202EBD2715B
:102AD00001EB4101A0EB41000528C9F8000057D8DF
:102AE000DFE800F018303840464C00BF2046102187
:102AF000FEF738FA0128D7D1D9F80000E0B1013843
:102B00000528C9F8000043D8DFE800F0041C242C95
:102B1000323800BFFFF7F6FB00200021FFF76AFC08
:102B200043F2CD30C0F60000FFF77CFC43F2C23622
:102B30000120C0F6000625E0C9F80050FFF7F2FEBC
:102B400026E000BFFFF7DEFB43F20F460020C0F691
:102B5000000617E0FFF7D6FB43F217460020C0F649
:102B600000060FE0FFF7CEFB002046460AE000BF5C
:102B7000FFF7C8FB0020564604E000BFFFF7C2FB8A
:102B800000205E460021FFF735FC3046FFF74AFC87
:102B90006420FEF7C5F88EE70FF2047502E000BF6F
:102BA0000FF2D865FFF7AEFB00200021FFF722FCF3
:102BB0002846FFF737FC00BF20464021FEF7D2F938
:102BC0000128F9D1FFF79EFB00200021FFF712FC3E
:102BD00043F20140C0F60000FFF724FC40F2A007DA
:102BE0004AF6AB2543F2A83843F2983943F2B83A93
:102BF000C2F20007C2F6AA25C0F60008C0F6000916
:102C0000C0F6000A4FF0050B07E000BF2046202168
:102C1000FEF7A8F9012800F0698020460821FEF798
:102C2000A1F9012812D13868013080FB051202EBAE
:102C3000D27101EB4101A0EB41000528386051D869
:102C4000DFE800F016303840462A00BF2046102149
:102C5000FEF788F90128D9D13868D8B1013805289C
:102C600038603FD8DFE800F0041E262E341800BF7D
:102C7000FFF748FB00200021FFF7BCFB43F2CD30FB
:102C8000C0F60000FFF7CEFB43F2C2360120C0F6CB
:102C9000000621E0C7F800B0FFF734FB00205646DD
:102CA0001AE000BFFFF72EFB43F20F460020C0F6EC
:102CB000000611E0FFF726FB43F217460020C0F69E
:102CC000000609E0FFF71EFB0020464604E000BFB7
:102CD000FFF718FB00204E460021FFF78BFB304624
:102CE000FFF7A0FB6420FEF71BF896E73868FFF7B4
:102CF00069FE00BFFFF706FB00200021FFF77AFB0B
:102D00000FF24C50FFF78EFB4FF4FA60FEF708F815
:102D100000200021FFF76EFB43F2F330C0F6000005
:102D2000FFF780FBA4F5806420464FF48061012208
:102D3000FEF71EF941F28830FDF7F2FFFFF7E2FAE5
:102D400000200021FFF756FB43F2DB30C0F6000005
:102D5000FFF768FB20464FF400610122FEF708F9F7
:102D600041F28830FDF7DCFFFFF7CCFA00200021AC
:102D7000FFF740FB43F2E530C0F60000FFF752FBDF
:102D800020464FF480510122FEF7F2F841F28830DC
:102D9000FDF7C6FFFFF7B6FA00200021FFF72AFB78
:102DA00043F22C40C0F60000FFF73CFB012000215D
:102DB000FFF720FB0FF2A840FFF734FB40F230147E
:102DC000C2F2000420460021FFF762F920460021EC
:102DD000FEF74CFD4FF4FA60FDF7A2FFFFF792FA01
:102DE0000FF28840FFF71EFBFFF70AFDFFF78AFA94
:102DF00000200021FFF7FEFA43F21F45C0F6000550
:102E00002846FFF70FFB4FF4FA60FDF789FFFFF745
:102E100079FA43F22C40C0F60000FFF703FB0120D3
:102E20000021FFF7E7FA2846FFF7FCFA40F23015D9
:102E3000C2F2000528460021FFF79AF92846002132
:102E4000FEF778FD41F28830FDF76AFFFFF75AFA86
:102E500000200021FFF7CEFA43F2F330C0F6000065
:102E6000FFF7E0FA01200021FFF7C4FA43F2E53052
:102E7000C0F60000FFF7D6FAA4F5806528464FF4A7
:102E800080510022FEF774F828464FF4806100223A
:102E9000FEF76EF841F28830FDF742FFFFF732FA95
:102EA00000200021FFF7A6FA43F2DB30C0F6000055
:102EB000FFF7B8FA28464FF400610022FEF758F8F1
:102EC0004FF4FA60FDF72CFFFFF71CFA00200021F9
:102ED000FFF790FA0FF26830FFF7A4FA4FF4FA60A8
:102EE000FDF71EFFFFF70EFA40F2000540F2A009C1
:102EF000C2F2000543F27E3843F28B36C2F200097B
:102F00004FF0640AC0F6000805F12007C0F600067D
:102F100000200021FFF76EFAD9F81400414600FBAB
:102F20000AF0020B2846FDF753F92846FFF77AFA14
:102F300001200021FFF75EFAD9F81800314600EBB6
:102F40008000020B3846FDF743F93846FFF76AFA6E
:102F500020464021FEF706F80128D9D1FFF7D2F923
:102F600000200021FFF746FA43F20140C0F60000BE
:102F7000FFF758FA4AF6AB2743F2A83843F2983ADB
:102F800043F2B83BC2F6AA27C0F60008C0F6000A12
:102F9000C0F6000B052506E020462021FDF7E2FFE4
:102FA000012800F0438120460821FDF7DBFF0128BE
:102FB00014D1D9F80000013080FB071202EBD27166
:102FC00001EB4101A0EB41000528C9F8000057D8EA
:102FD000DFE800F018303840464C00BF2046102192
:102FE000FDF7C0FF0128D7D1D9F80000E0B10138C2
:102FF0000528C9F8000043D8DFE800F0041C242CA1
:10300000323800BFFFF77EF900200021FFF7F2F908
:1030100043F2CD30C0F60000FFF704FA43F2C236A7
:103020000120C0F6000625E0C9F80050FFF77AFC41
:1030300026E000BFFFF766F943F20F460020C0F616
:10304000000617E0FFF75EF943F217460020C0F6CE
:1030500000060FE0FFF756F9002046460AE000BFE1
:10306000FFF750F90020564604E000BFFFF74AF989
:1030700000205E460021FFF7BDF93046FFF7D2F988
:103080006420FDF74DFE8EE7FFF73CF940F20005A6
:1030900040F2A009C2F2000543F27E3843F28B36BB
:1030A000C2F200094FF0640AC0F6000805F12007DB
:1030B000C0F6000600200021FFF79CF9D9F81400A3
:1030C000414600FB0AF0020B2846FDF781F828462E
:1030D000FFF7A8F901200021FFF78CF9D9F81800B3
:1030E000314600EB8000020B3846FDF771F8384698
:1030F000FFF798F920464021FDF734FF0128D9D188
:10310000FFF700F900200021FFF774F943F20140B6
:10311000C0F60000FFF786F94AF6AB2743F2A8385D
:1031200043F2983A43F2B83BC2F6AA27C0F6000829
:10313000C0F6000AC0F6000B052506E02046202157
:10314000FDF710FF012800F0718020460821FDF7EF
:1031500009FF012814D1D9F80000013080FB0712C3
:1031600002EBD27101EB4101A0EB41000528C9F847
:10317000000057D8DFE800F018303840464C00BF58
:1031800020461021FDF7EEFE0128D7D1D9F8000026
:10319000E0B101380528C9F8000043D8DFE800F0A5
:1031A000041C242C323800BFFFF7ACF800200021AB
:1031B000FFF720F943F2CD30C0F60000FFF732F9F7
:1031C00043F2C2360120C0F6000625E0C9F80050DF
:1031D000FFF7A8FB26E000BFFFF794F843F20F4685
:1031E0000020C0F6000617E0FFF78CF843F2174600
:1031F0000020C0F600060FE0FFF784F800204646E6
:103200000AE000BFFFF77EF80020564604E000BF4A
:10321000FFF778F800205E460021FFF7EBF8304614
:10322000FFF700F96420FDF77BFD8EE7D9F8000079
:10323000FFF7C8FB4B492069736C656D690000009E
:103240004465767265204B61706174696C646900D5
:103250004261736C6174696C69796F72000000007F
:103260004261736C6174696C646900004D656E75D0
:10327000796520676563696C646900004B5020695B
:10328000736C656D690000004672656B616E733D1D
:1032900020256400416B696D3D20256420000000FD
:1032A00053617966612048617461736900000000B0
:1032B00070B540F60004C4F201040546CAB22046C7
:1032C0000821FDF755FE04F58066C5F3C0023046BF
:1032D0000221FDF74DFEC5F3800230460121FDF7C6
:1032E00047FEC5F3400220468021FDF741FE05F070
:1032F000010220464021FDF73BFE2046202101220D
:10330000FDF736FE40F27815C2F20005286800216C
:10331000416200BF416A132908D8416A132905D8C0
:10332000416A132902D8416A1429F3D32046202187
:1033300000220024FDF71CFE2868446207E000BF5D
:10334000416A132988BF70BD416A142905D2416AB8
:10335000132902D8416A1329F2D970BD0000000078
:10336000000000000102030406070809010202032D
:103370000405060708090A0B0C0D0E0F1010566FF6
:103380006C746167653D2025642000437572726529
:103390006E743D202564200053697374656D20446C
:1033A00075726475726D610053697374656D204246
:1033B00061736C61746D6100416463204F6B756D66
:1033C0006100416B696D206F6B756D6100467265C0
:1033D0006B616E73206F6B756D610043696B697310
:1033E00020676E640043696B697320566F6C74616B
:1033F000676500476972697320566F6C7461676511
:103400000043696B697320796170696C6469004974
:1034100020417961726900502041796172690044EC
:103420007572647572756C75796F72004672656B32
:10343000616E730058340008000000204000000056
:103440002801000898340008400000208807000088
:1034500044010008000000002000000000000000FF
:10346000000000000000000020000000000000003C
:10347000000000000000000020000000000000002C
:10348000000000000000000001000000100000002B
:083490000024F400000000001C
:04000005080000ED02
:00000001FF
