:020000040800F2
:100000000807002089010008DD140008D514000845
:10001000D914000845020008F1140008000000008F
:10002000000000000000000000000000E5140008CF
:100030004902000800000000E1140008E91400086B
:10004000A3010008A3010008A3010008A301000800
:10005000A3010008A3010008A3010008A3010008F0
:10006000A3010008A3010008A3010008A3010008E0
:10007000A3010008A3010008A3010008A3010008D0
:10008000A3010008A3010008A3010008A3010008C0
:10009000A3010008A3010008A3010008A3010008B0
:1000A000A3010008A3010008A3010008A3010008A0
:1000B000A3010008A3010008A3010008A301000890
:1000C000A3010008A3010008A3010008A301000880
:1000D000A3010008A3010008A3010008A301000870
:1000E000A3010008A3010008A301000800F002F822
:1000F00000F03AF80AA090E8000C82448344AAF188
:100100000107DA4501D100F02FF8AFF2090EBAE885
:100110000F0013F0010F18BFFB1A43F0010318473B
:10012000B01A0000D01A0000103A24BF78C878C175
:10013000FAD8520724BF30C830C144BF04680C60ED
:10014000704700000023002400250026103A28BF35
:1001500078C1FBD8520728BF30C148BF0B60704739
:100160001FB51FBD10B510BD00F031F81146FFF7E7
:10017000F7FF01F065FA00F04FF803B4FFF7F2FF64
:1001800003BC00F057F800000948804709480047C1
:10019000FEE7FEE7FEE7FEE7FEE7FEE7FEE7FEE737
:1001A000FEE7FEE704480549054A064B7047000094
:1001B000ED140008ED0000080801002008070020E9
:1001C00008030020080300207047704770477546F9
:1001D00000F02CF8AE4605006946534620F00700B3
:1001E000854618B020B5FFF7DDFFBDE820404FF091
:1001F00000064FF000074FF000084FF0000BAC4630
:10020000ACE8C009ACE8C009ACE8C009ACE8C0097A
:1002100021F007018D46704710B50446AFF300800A
:100220002046BDE81040FFF7A8BF00000048704717
:100230001000002001491820ABBEFEE72600020096
:1002400070470000FEE7000070470000B0B50446AC
:1002500000F02AF9054640F20000C2F200000078E2
:10026000611C18BF044400BF00F01EF9401BA042EF
:10027000FAD3B0BD2DE9F04F82B00E68002E00F029
:10028000038141F20042C4F20102042340F2004E15
:10029000904208BF03234FF6FF7CC4F2010E009387
:1002A00000240123C1F2100C4FF0000A4FF00009A6
:1002B00049E000BF012704F00C030F229A402BEA0B
:1002C000020207FA03F34FEA9A051A4346F825207B
:1002D000D1F804B040F20C455FEACB22DEF80820EA
:1002E00054BF22EA080242EA0802C4F20105CEF82D
:1002F00008202A685FEA8B2354BF22EA080242EAF8
:1003000008022A605FEA8B33DEF8042054BF22EA39
:10031000080242EA08025FEACB33CEF80420DEF896
:1003200000204FF0010354BF22EA080242EA08020B
:10033000CEF800200E680AF1010A36FA0AF204F13A
:10034000040400F0A18003FA0AF816EA080FF1D0BD
:100350004E68664512DC122E56D8DFE806F0350BE3
:100360004549555555555555555555555555554D61
:10037000510000BFD1F80C9046E000BF4FF6FF726D
:10038000C1F2210296420FDC0022C1F21102964214
:100390001AD00022C1F21202964215D00022C1F2F8
:1003A0002102964210D02FE00022C1F22202964292
:1003B0000AD00022C1F23102964205D00022C1F2D9
:1003C0003202964220D100BF8A684AB1012A14BF86
:1003D000C0F81480C0F810804FF0080914E000BF86
:1003E0004FF0040910E000BFCA6802F108090BE0F1
:1003F0004FF0000908E000BFCA6802F1040903E0F9
:10040000CA6802F10C0900BF22460646BAF1080F7D
:1004100024BF203A043637680F25954027EA0505A2
:1004200009FA02F22A433260CA79D2067FF582AF16
:1004300041F21803C4F202031A68AEF57E7642F068
:1004400001021A601A6802F001020192019A2AF070
:10045000030256F802B040F60002C4F201029042D4
:1004600010D040F60042C4F2010290423FF422AFA5
:1004700041F20002C4F20102009F904208BF02272D
:1004800019E700BF002716E702B0BDE8F08F0000B3
:100490008068084018BF012070470000002A08BF8C
:1004A000090401617047000040F20410C2F200002C
:1004B0000068704740F2000040F20411C2F20000F0
:1004C000C2F2000100780A6810440860704700001A
:1004D00080B542F20000C4F20200016841F0100150
:1004E0000160032000F07AF80F2000F005F800F01A
:1004F00027F8002080BD000070B540F20006C2F26F
:10050000000640F208013278C2F200014FF47A731B
:100510000968B3FBF2F20446B1FBF2F1084600F0C1
:1005200027FB0F2C4FF0010508D838B94FF0FF30EA
:1005300021460022002500F025F87460284670BD91
:1005400082B041F21800C4F202000168022241F0B8
:1005500001010160016801F0010101910199416807
:1005600041F080514160406800F080500090009858
:100570000420C4F20100016862F31A61016002B054
:100580007047000010B54EF60C5CCEF2000CDCF8A3
:100590000030C3F3022E8EF00704042C28BF04247D
:1005A000BEF103034FF0FF3E0EFA04F438BF002300
:1005B000A14399400EFA03F39A43114300F00F024E
:1005C00000F160430901043A03F5644362440028E2
:1005D00048BF02F10C03197010BD00004EF60C511B
:1005E000CEF200010A684FF6FF031A4060F30A22B8
:1005F00042F0806040F0FD70086070472DE9F043E4
:1006000081B0002800F0858042F20008C4F20208A0
:100610000446D8F800000D4600F0070088420CD2CE
:10062000D8F8000020F007002843C8F80000D8F8E8
:10063000000000F00700A8426BD1206841F20409D5
:100640008107C4F2020917D5410705D5D9F8001072
:1006500041F4E061C9F80010010705D5D9F8001090
:1006600041F46051C9F80010D9F80010A26821F0D7
:10067000F0011143C9F80010C00741D1D8F80000BB
:1006800000F00700A8420CD9D8F8000020F00700BD
:100690002843C8F80000D8F8000000F00700A8427E
:1006A00037D12068410707D5D9F80010E26821F456
:1006B000E0611143C9F80010000708D5D9F800001F
:1006C000216920F4605040EAC100C9F80000D9F85F
:1006D000002002F00C00082841F20020C0F27A004D
:1006E00050D141F64233C2F38341C0F60003595C56
:1006F000D2033BD440F60010C0F23D00484341E035
:10070000606802280AD001282AD159F8041C8903FC
:1007100008D4012001B0BDE8F08300BF59F8041CE3
:100720008901F6D5D9F8001021F003010843C9F872
:100730000000FFF7B9FE064641F28837D9F80000FD
:10074000616800F00C00B0EB810F97D0FFF7ACFEB2
:10075000801BB842F2D9032001B0BDE8F08300BF8E
:1007600059F8041C8907D4D5DCE700BFD9F800206C
:1007700041F64033C2F34042C0F600039A5C48435E
:10078000B0FBF2F0D9F8001041F63032C1F303119A
:10079000C0F60002515C40F2080220FA01F140F27A
:1007A0000400C2F200000068C2F200021160FFF70C
:1007B000A3FE002001B0BDE8F08300002DE9F04168
:1007C00082B0002868D00446007841F20006C007D5
:1007D000C4F2020625D0706800F00C0004281BD07B
:1007E000706800F00C00082802D17068C00313D4B0
:1007F0006068002800F06881B0F5A02F00F07C81CF
:10080000B0F5803F00F07C81306820F480303060AB
:10081000306820F4802076E13068800301D560687C
:10082000D0B32078800718D5706810F00C0F07D06F
:10083000706800F00C0008286ED17068C0036BD49B
:100840003068800702D52069012825D130686169A8
:1008500020F0F80040EAC1003060207800071FD483
:100860002078400732D4E56995B1706800F00C003B
:10087000082840F08F80012D0ED07068216A00F4A6
:1008800080328A4208D1616A00F47010884203D134
:10089000002002B0BDE8F081012002B0BDE8F08187
:1008A000A069002862D00020C4F242200121C0F8D3
:1008B0008014FFF7F9FD0546706A800700F18C800F
:1008C000FFF7F2FD401B0228F6D92AE1F06910F08B
:1008D000805808D1F06940F08050F061F06900F074
:1008E00080500090009847F20007C4F20007386873
:1008F000C00529D4386840F480703860FFF7D4FD13
:10090000054600BF3868C0051ED4FFF7CDFD401B6B
:100910006428F7D905E100BF2069002840F20000F3
:10092000C4F2422000F0828001210160FFF7BCFD8B
:10093000054600BF306880073FF588AFFFF7B4FD7C
:10094000401B0228F6D9ECE0E068002800F0808027
:10095000052800F09780012800F09880306A20F088
:1009600001003062306A20F0040092E00020C4F2FE
:1009700042200021C0F88014FFF796FD054600BF15
:10098000706A80077FF56CAFFFF78EFD401B022871
:10099000F6D9C6E00027C4F2422700203866FFF7E8
:1009A00083FD022D05460BD13068800140F1BE80E9
:1009B000FFF77AFD401B02284FF00300F4D968E7E7
:1009C000306880017FF564AFFFF76EFD401B0228A1
:1009D0004FF00300F4D95CE740F20800C2F20000D7
:1009E000006844F6D351C1F26201A0FB0101480A3C
:1009F000019000BF00BF0198411E002801913FF403
:100A00002FAF00BF0198411E002801913FF428AF8D
:100A100000BF0198411E002801913FF421AF00BFA3
:100A20000198411E00280191E4D119E700210160DD
:100A3000FFF73AFD054600BF306880077FF50DAF30
:100A4000FFF732FD401B02284FF00300F4D920E7E6
:100A5000306A20F001003062306A20F00400306219
:100A6000FFF722FD054641F2883700BF306A800754
:100A700020D5FFF719FD401BB8424FF00300F5D910
:100A800007E700BF306A40F004003062306A40F08F
:100A900001003062FFF708FD054641F2883700BFCC
:100AA000306A800706D4FFF7FFFC401BB842F7D935
:100AB00037E000BFB8F1000F7FF4D5AEF06920F049
:100AC0008050F061CFE600BF306820F480303060A5
:100AD000306820F480203060FFF7E6FC054600BF58
:100AE000306880037FF59DAEFFF7DEFC401B642875
:100AF0004FF00300F4D9CCE6306840F48020306039
:100B0000306840F480303060FFF7CEFC054600BF0F
:100B1000306880033FF585AEFFF7C6FC401B6428B4
:100B2000F6D9032002B0BDE8F08100BF206AB0F51D
:100B3000803F05D17168A26821F4003111437160D2
:100B40007168626A21F474111143084370600120D6
:100B50003866FFF7A9FC0446306880013FF598AE7F
:100B6000FFF7A2FC001B02284FF00300F4D990E627
:100B7000411E0020B0EB116F1CBF012070474EF2E8
:100B80001002CEF2000251604EF62351CEF2000167
:100B9000F0230B700721906011607047B0B590F89A
:100BA0003C20012A04BF0220B0BD01F108053CCD64
:100BB000D1E900CE23F47C5322F470521A432EF470
:100BC000F0431A432CF4E0431A4324F4C0431A437D
:100BD0002A43C96922F48042036811435964002101
:100BE00080F83C100846B0BD10B590F83C20012AB2
:100BF0004FF0020233D080F83D200268D2F804E0C2
:100C0000D2F808C00C682EF07003234340F2FF7442
:100C1000C4F20004A24253600ADCB2F1804F13D048
:100C200040F20043C4F200039A420DD011E000BF2D
:100C300042F60043C4F201039A4205D040F6000395
:100C4000C4F200039A4204D149682CF0800319438E
:100C500091600121002280F83D1080F83C20104670
:100C600010BD000041B1082910D0042914BF00F1C3
:100C7000450200F143020BE090F84220012A1CBF1C
:100C800001207047022280F8422013E000F1440264
:100C90001278012A1CBF012070470222082907D0C0
:100CA000042914BF80F8452080F8432002E000BFEB
:100CB00080F84420006801F01F010422036A02FA50
:100CC00001F123EA01020262026A11430162416CEE
:100CD00040F2FF72C4F2000241F4004190424164CC
:100CE0000ADCB0F1804F13D040F20041C4F20001A1
:100CF00088420DD013E000BF42F60041C4F201016A
:100D0000884205D040F60001C4F20001884206D1B5
:100D1000816801F00701062904BF002070470168BF
:100D200041F001010160002070470000002804BF6D
:100D30000120704710B5044690F83D0028B9002006
:100D400084F83C00204600F067F8022084F83D005B
:100D5000206840F2FF730268C4F2000342F6004CC0
:100D60009842C4F2010C15DCB0F1804F1AD040F269
:100D70000041C4F20001884214D0984218DCB0F15E
:100D8000804F1DD040F20041C4F20001884217D0CC
:100D90001AE000BF604505D040F60001C4F2000132
:100DA0008842EAD1A16822F070020A439842E6DD47
:100DB000604505D040F60001C4F20001884203D12D
:100DC000216922F440720A43A36922F08001D4F819
:100DD00004E0E268194360450160C262C0F828E09F
:100DE00002D16169CCF8301001214161002084F802
:100DF000461084F83E1084F83F1084F8401084F8C0
:100E0000411084F8421084F8431084F8441084F8A8
:100E1000451084F83D1010BD81B00068B0F1804FDE
:100E200002D001B0704700BF41F21C00C4F20200C2
:100E3000016841F001010160006800F001000090CC
:100E4000009801B07047000090F83D1001291CBFC8
:100E500001207047022180F83D10006840F2FF71C8
:100E6000C4F20001884209DCB0F1804F12D040F298
:100E70000041C4F2000188420CD012E042F6004169
:100E8000C4F20101884205D040F60001C4F200011D
:100E9000884206D1816801F00701062904BF0020BD
:100EA0007047016841F001010160002070470000B7
:100EB00080B590F83C20012A4FF0020200F0C28079
:100EC00080F83D20D0F800C04FF67772DCF808308B
:100ED00023EA0202CCF808200B684F2B28DC1F2BDA
:100EE00044DD202B45D0302B43D0402B40F0AC804C
:100EF000D1F804E0C968DCF82030DCF8202022F0CA
:100F00000102CCF82020DCF8182022F0F00242EA9E
:100F1000011123F00A0242EA0E02CCF81810CCF8B4
:100F20002020DCF8081041F0470121F0300180E07A
:100F30006F2B27DDB3F5005F48D0B3F5805F7AD023
:100F4000702B40F08180D1E901E3C968DCF808200A
:100F500043EA0E0322F47F4243EA01211143CCF815
:100F60000810DCF8081041F0770162E00BB1102B9B
:100F70006AD1DCF8081021F07001194341F0070133
:100F800057E000BF502B35D0602B5DD1D1F804E085
:100F9000C968DCF82030DCF8202022F01002CCF800
:100FA0002020DCF8182022F4704242EA013123F0BC
:100FB000A00242EA0E12CCF81810CCF82020DCF87F
:100FC000081041F0670121F0100132E0D1E901E39E
:100FD000C968DCF8082043EA0E0322F47F4243EAA2
:100FE00001211143CCF80810DCF8081041F48041CD
:100FF0001FE000BFD1F804E0C968DCF82030DCF85D
:10100000202022F00102CCF82020DCF8182022F069
:10101000F00242EA011123F00A0242EA0E02CCF881
:101020001810CCF82020DCF8081041F0570121F00E
:101030002001CCF808100022012180F83D10002189
:1010400080F83C10104680BD0122F5E770B586B0EF
:1010500040F60004C4F20104006804F510520021B7
:101060009042049102D006B070BD00BF41F218005A
:10107000C4F20200016802AD41F00801016001689C
:10108000022601F0080101910199016841F0040173
:1010900001600068294600F00400019001984FF4B7
:1010A0000050029004F5806003960596FFF7E2F881
:1010B0004FF48070CDE90206204629460596FFF7D9
:1010C000D9F806B070BD00002DE9F04390F83C302F
:1010D000012B04BF0220BDE8F0834FEAB202032ACD
:1010E0003CD8DFE802F0034381BD00BF036842F64D
:1010F00000461D6A1A6AC4F2010622F001021A6251
:101100001A465C6852F818CFB3428E68D1F800E0F6
:1011100025F0020545EA06050CD1CE68D1E905782F
:1011200024F4407425F00C0526F004063C433543B6
:1011300044EA08042CF0730747EA0E075C609F61DD
:101140004F6809695F631D629F6947F008079F61E7
:101150009F6927F004079F61B2E000BF01210022D0
:1011600080F83C200846BDE8F08300BF036842F6E3
:1011700000461D6A1A6AC4F2010622F010021A62C1
:101180001A46D3F804C052F8184FB3428E68D1F80B
:1011900000E025F0200545EA061510D1CE68D1E91A
:1011A000058725F0C0096FF0400505EA06152CF407
:1011B000406647EA080745EA090546EA870C24F431
:1011C000E64444EA0E27C3F804C09F614F680969EA
:1011D0009F631D629F6947F400679F619F6927F4C1
:1011E00080679F616BE000BF036842F600461D6A9E
:1011F0001A6AC4F2010622F480721A621A46D3F8FF
:1012000004C052F81CEFB3428E680C6825F40075D8
:1012100045EA062511D1CE68D1E9058725F4406954
:10122000360240F2FF4526EA05052CF4405647EA0F
:10123000080745EA090546EA071C2EF0730727430D
:10124000C3F804C0DF614F680969DF631D62DF69AD
:1012500047F00807DF61DF6927F00407DF612FE04F
:10126000036842F60047D3F820C01A6AC4F20107A7
:1012700022F480521A621A465C6852F81C5FD1F858
:1012800000E08E68BB4204D14F6924F4804444EAF4
:1012900087142CF4005747EA063725F4E64646EA59
:1012A0000E265C60DE614E6809691E641F62DF699C
:1012B00047F40067DF61DF6927F48067DF610902B7
:1012C0001368194311600021002280F83C20084671
:1012D000BDE8F083002804BF0120704710B5044624
:1012E00090F83D0028B9002084F83C00204600F02A
:1012F00067F8022084F83D00206840F2FF7302681E
:10130000C4F2000342F6004C9842C4F2010C15DC12
:10131000B0F1804F1AD040F20041C4F2000188427F
:1013200014D0984218DCB0F1804F1DD040F200413B
:10133000C4F20001884217D01AE000BF604505D012
:1013400040F60001C4F200018842EAD1A16822F00F
:1013500070020A439842E6DD604505D040F6000180
:10136000C4F20001884203D1216922F440720A4389
:10137000A36922F08001D4F804E0E26819436045D3
:101380000160C262C0F828E002D16169CCF8301077
:1013900001214161002084F8461084F83E1084F851
:1013A0003F1084F8401084F8411084F8421084F80B
:1013B000431084F8441084F8451084F83D1010BDA3
:1013C00081B0006842F60041C4F20101884201D0B8
:1013D00001B0704741F21800C4F20200016841F404
:1013E00000610160006800F400600090009801B0A6
:1013F0007047000041B1082910D0042914BF00F142
:10140000410200F13F020BE090F83E20012A1CBF90
:1014100001207047022280F83E2013E000F14002D4
:101420001278012A1CBF012070470222082907D028
:10143000042914BF80F8412080F83F2002E000BF5B
:1014400080F84020006801F01F010122036A8A40F1
:1014500023EA02010162036A42F64441C4F2010137
:101460001A43A1F14403984202620FD040F2FF7187
:10147000C4F20001884213DCB0F1804F1CD040F26E
:101480000041C4F20001884216D01CE00A6842F410
:1014900000420A6040F2FF71C4F200018842EBDDB5
:1014A00042F60041C4F20101884205D040F6000135
:1014B000C4F20001884206D1816801F007010629C3
:1014C00004BF00207047016841F001010160002065
:1014D00070470000FEE70000FEE70000FEE70000A6
:1014E0007047000070470000FEF7E4BF704700003F
:1014F000FEE7000080B50020002100F0BBFA0120CB
:10150000002100F0B7FA0220BDE88040FEF79EBE41
:1015100080B53220FEF79AFE0320002100F0AAFADF
:101520000020002100F0A6FA0520FEF78FFE032020
:10153000002100F09FFA0020002100F09BFA01201A
:10154000FEF784FE0320002100F094FA0020002121
:1015500000F090FA0A20FEF779FE0220002100F048
:1015600089FA0020002100F085FA0A20FEF76EFEBD
:101570000220002100F07EFA0820002100F07AFA13
:101580000120FEF763FE0020002100F073FA08201E
:10159000002100F06FFA0120FEF758FE0020002124
:1015A00000F068FA0120002100F064FA0120FEF743
:1015B0004DFE0120FEF74AFE0020002100F05AFAFD
:1015C0000620002100F056FA0120FEF73FFE002021
:1015D000002100F04FFA0C200021BDE8804000F00F
:1015E00049BA000010B501280C4605D0002808BFF4
:1015F00044F0800402E000BF44F0C004E0B20009FF
:10160000002100F037FA04F00F000021BDE810407F
:1016100000F030BAB0B50478002C08BFB0BD451E4C
:10162000E0B20009012100F025FA04F00F000121C9
:1016300000F020FAAC780135002CF1D1B0BD0000EB
:1016400094B0FEF745FF00240120CDE90544CDE923
:101650000344009004904FF4E0104FF480310225D1
:1016600009906846CDE90114CDE90751FFF7A6F8C6
:1016700020B1EFF3108072B6FEE700BF0F20CDE976
:101680000A054FF48060CDE90D040AA802210C94EC
:10169000FEF7B4FF20B1EFF3108072B6FEE700BF93
:1016A00041F21800C4F20200016840F6004841F01F
:1016B000200101600168C4F2010801F020010091DD
:1016C00000990168A8F5806541F004010160016896
:1016D000002201F00401009100990168F82641F010
:1016E000080101600068F82100F0080000900098EF
:1016F00028460027FEF7D2FE4046032100224FF085
:101700000309FEF7CBFE00966E464FF0010A022455
:1017100028463146CDE901A70394FEF7ABFD4046CC
:101720003146CDE9009ACDE90274FEF7A3FD782099
:10173000CDE90007404631460294FEF79BFD40F29A
:10174000BC00C2F200004FF080414FF6FE730397D9
:10175000CDE90177CDE90A77472280E88600C0E924
:1017600003378761FFF7E2FA20B1EFF3108072B61A
:10177000FEE700BF4FF48050009040F2BC00C2F280
:1017800000006946FFF794FB20B1EFF3108072B6BA
:10179000FEE700BF40F2BC00C2F200000AA9FFF75A
:1017A00023FA28B1EFF3108072B600BFFEE700BF46
:1017B00040F27400002108F50052C2F2000040F22D
:1017C0003633CDE912110691C0E90021C0E90213B8
:1017D000C0E904118161FFF77DFD28B1EFF31080AE
:1017E00072B600BFFEE700BF40F27400C2F2000014
:1017F00012A9FFF7F9F928B1EFF3108072B600BF14
:10180000FEE700BF60200A9040F29B100B9040F270
:1018100074000024C2F200000AA90022CDE90C44A1
:10182000CDE90E441094FFF74FFC28B1EFF3108080
:1018300072B600BFFEE700BF2020CDE903044FF4DD
:101840000050059040F27400C2F200006946CDE9F4
:10185000004402940794FFF7A1F928B1EFF3108038
:1018600072B600BFFEE700BF40F27404C2F200048B
:101870002046FFF7EBFB40F2BC00C2F20000FFF78E
:10188000E3FA20460021FFF7B5FD20460021FFF7CF
:10189000E9F9FFF73DFE00200021FFF7A3FE05A0B8
:1018A000FFF7B8FE40F2DC50FEF7D0FCFFF722FE57
:1018B00000F004F84D6572686162610040F6004412
:1018C00040F2700646F2676741F62038C4F2010420
:1018D000C2F20006C6F26667C0F600084FF00409BF
:1018E00005E000BFC6F800906420FEF7AFFC20467C
:1018F0000821FEF7CDFD01280ED13068013080FBB4
:101900000712511001EBD27101EB8101401A03283B
:101910003060E9D80DE000BF20461021FEF7B8FD89
:10192000012813D130680028DCD00138032830604A
:10193000DAD858F82050FFF7DDFD00200021FFF72E
:1019400051FE2846FFF766FECEE700BF2046202165
:10195000FEF79EFD0128CAD1306800F001F80000B2
:1019600004289ABF3AA151F8205035A540F600440A
:10197000C4F20104FFF7BEFD00200021FFF732FE94
:101980002846FFF747FE00BF20464021FEF780FDB6
:101990000128F9D1FFF7AEFD00200021FFF722FE5C
:1019A00030A0FFF737FE40F2700646F2676741F657
:1019B0002038C2F20006C6F26667C0F600084FF093
:1019C000040904E0C6F800906420FEF73FFC2046BE
:1019D0000821FEF75DFD01280ED13068013080FB43
:1019E0000712511001EBD27101EB8101401A03285B
:1019F0003060E9D80DE000BF20461021FEF748FD19
:101A0000012813D130680028DCD001380328306069
:101A1000DAD858F82050FFF76DFD00200021FFF7BD
:101A2000E1FD2846FFF7F6FDCEE700BF2046202166
:101A3000FEF72EFD0128CAD13068FFF791FF00BFE5
:101A400073617966612068617461736900000000E8
:101A5000521B0008611B0008701B00087F1B000858
:101A60008E1B000843696B697320796170696C642F
:101A70006900000070B540F60004C4F20104054698
:101A8000CAB220460821FEF709FD04F58066C5F3B9
:101A9000C00230460221FEF701FDC5F38002304648
:101AA0000121FEF7FBFCC5F3400220468021FEF732
:101AB000F5FC05F0010220464021FEF7EFFC204630
:101AC00020210122FEF7EAFC40F2BC05C2F200052B
:101AD00028680021416200BF416A132908D8416A81
:101AE000132905D8416A132902D8416A1429F3D36E
:101AF0002046202100220024FEF7D0FC2868446202
:101B000007E000BF416A132988BF70BD416A1429EC
:101B100005D2416A132902D8416A1329F2D970BD4E
:101B2000AD1B0008BA1B0008C41B00089D1B000861
:101B3000000000000000000001020304060708097D
:101B4000010202030405060708090A0B0C0D0E0F1B
:101B5000101069736C656D652068617A6972203157
:101B60000069736C656D652068617A697220320066
:101B700069736C656D652068617A697220330069EC
:101B8000736C656D652068617A69722034006973D1
:101B90006C656D652068617A6972203500536973E0
:101BA00074656D204475726475726D610050574D97
:101BB000204261736C61746D6100414443204F6B3E
:101BC000756D6100504920417961726C61726900E4
:101BD000F01B000800000020100000002801000891
:101BE000001C000810000020F80600004401000856
:101BF00001000000100000000024F40000000000BC
:04000005080000ED02
:00000001FF
