:020000040800F2
:10000000F0070020B9010008552D00084D2D00080B
:10001000512D000895100008692D0008000000000F
:100020000000000000000000000000005D2D00083E
:10003000A510000800000000592D0008612D0008DF
:10004000D3010008D3010008D3010008D301000840
:10005000D3010008D3010008D3010008D301000830
:10006000D3010008D3010008D3010008991000084B
:10007000D3010008D3010008D3010008D301000810
:10008000D3010008D3010008D3010008D301000800
:10009000D3010008D3010008D3010008D3010008F0
:1000A000D3010008D3010008D3010008D3010008E0
:1000B000D3010008D3010008D3010008D3010008D0
:1000C000D3010008D3010008D3010008D3010008C0
:1000D000D3010008D3010008D3010008D3010008B0
:1000E000D3010008D3010008D301000800F002F892
:1000F00000F053F80AA090E8000C82448344AAF16F
:100100000107DA4501D100F048F8AFF2090EBAE86C
:100110000F0013F0010F18BFFB1A43F0010318473B
:10012000CC4F0000EC4F0000103A24BF78C878C1D3
:10013000FAD8520724BF30C830C144BF04680C60ED
:10014000704700000023002400250026103A28BF35
:1001500078C1FBD8520728BF30C148BF0B60704739
:10016000662904F0E586652904F0E286672904F033
:10017000DF86612904F0DE86642900F079800020A2
:1001800070471FB500F07AFD04000020002104F044
:1001900027FCE0601FBD10B510BD00F06FFE1146DA
:1001A000FFF7EFFF02F0EAFE00F08DFE03B4FFF769
:1001B000F2FF03BC00F0D0FE094880470948004721
:1001C000FEE7FEE7FEE7FEE7FEE7FEE7FEE7FEE707
:1001D000FEE7FEE704480549054A064B7047000064
:1001E000652D0008ED000008F0010020F007002058
:1001F000F0030020F00300200FB41CB5074B06AA43
:100200007B4469460090059800F01FFD0020694678
:1002100000F02EFD1CBC5DF814FB00006D0A000010
:1002200070B5044685690068C10601D5302600E036
:100230002026C00707D070BDD4E901213046904781
:10024000206A401C20626D1EF6D570BD70B5044654
:1002500085690078C00707D170BDD4E9012120204D
:100260009047206A401C20626D1EF6D570BD0000CC
:100270002DE9F0410646002410687529314616A57F
:1002800010D0AFF30080002802DA404213A507E047
:1002900031688A0701D512A502E0490704D511A5E6
:1002A000012401E0AFF3008000210A2206F12407B7
:1002B00009E0B0FBF2FCB0FBF2F302FB1C003030B3
:1002C00078541846491C0028F3D123462A46304664
:1002D000BDE8F04100F0CFB8000000002D000000A4
:1002E0002B000000200000002DE9F05F8946044645
:1002F0004FF0000ADFF874B1FB44C0F820A020469C
:10030000E1688847002874D0252806D0D4E9012167
:100310009047206A401C2062F1E700265F46204695
:10032000E16888472028054607DB312D05D278197A
:1003300010F8200C08B10643F1E7B00701D526F00C
:100340000406C4F81CA00027C4F818A02A2D09D060
:10035000284604F03DFB38B304EB8708303DC8F86D
:10036000185019E059F8041B204604EB87029161EC
:10037000E1688847012F054618D1E069002820DA96
:1003800026F020061DE0D8F8180000EB800005EBF1
:1003900040003038C8F818002046E1688847054614
:1003A00004F016FB0028EED1012F0AD02E2D08D123
:1003B0002046E16888477F1C0546022F46F020064C
:1003C000C4DBA069002803DA404246F00106A061C0
:1003D000F00701D026F010066C2D0BD0682D09D047
:1003E0004C2D39D06A2D35D0742D35D07A2D33D09F
:1003F00016E038E0E1682F4620468847B8420546B7
:1004000009D16C2F26D04FF48060E1680643204666
:100410008847054604E06C2F1AD04FF480700643DD
:100420000DB3A5F14100192802D8203546F4006625
:100430004A462946204626604E46FFF791FE80B187
:1004400001280BD0F61D26F0070000F1080956E739
:100450004020E4E78020D8E70020D6E706F1040931
:100460004DE7284652E7206ABDE8F09F3C4C00006B
:100470007047704770472DE9F0470D469946924600
:10048000044600F124080168880604D5E06921F0DB
:100490001001216000E00120A84201DD471B00E0BF
:1004A0000027A1697A1902EB0900081AA0612078D7
:1004B000C00602D42046FFF7B3FE002608E0D4E9C8
:1004C00001211AF806009047206A401C761C206221
:1004D0004E45F4DB2078C0060AD52046FFF7A0FE83
:1004E00006E0D4E9012130209047206A401C2062B8
:1004F000381EA7F10107F4DC07E0D4E9012118F860
:1005000005009047206A401C2062281EA5F10105C5
:10051000F3DC2046FFF79AFE2078000602D5022081
:10052000BDE8F0870120FBE72DE9FF4F0C461E4692
:100530004FF0FF378BB0D2E90001DDF860800A9000
:100540008A46C1F30A5505B93D46002108464FF0D9
:100550000000BAF1000F00F4400005DA00EB800063
:100560004FF4400101EA50004FEA9059B9F1010FF0
:1005700000DDB9460A9850EA4A000ED044F6105001
:10058000A5F2FF3545432F14B8F1000F1ED0754278
:10059000291E1EDDC9F100021CE0B8F1010F4FF069
:1005A000000001D0302103E0F24305E02154401C5B
:1005B000B042FBDB30460022002121540B99C1F8E8
:1005C0000880C1E900200FB0BDE8F08FBD1B6D1C95
:1005D000DEE74A4600DA694206A800F0D9FB06AB1E
:1005E00093E8070003AB83E8070050460A9903F03D
:1005F00013FE8DE80700A0F500501F380090039807
:10060000002D0ADD42F21F014A460844002303A9D7
:100610000390684604F07CF809E0A0F500504A46D3
:100620001F38002303A90390684604F086F88DE87C
:1006300007000004000C03D04FF0FF30410800E039
:100640001046B8F1000F03D00022009215461EE0BC
:10065000751E05D400F016FB303262556D1EF9D5BB
:10066000B3460122084302D000227F1C04E0207818
:10067000302801D100227F1E002A099784D01DE076
:10068000112D07DA00F0FEFA303262556D1C50EA87
:100690000102F5D1084302D00098C8B10EE0002154
:1006A000681E05E0235C625C63542254401E491CB2
:1006B0008142F7DBAB46A81B401E0990002004F8DE
:1006C0000B000B98099AC0F80880C0E9002B7AE764
:1006D00011264FF0000857E72DE9F04F88460446F1
:1006E000D21D22F0070191B0D1E90001CDE90A0144
:1006F00004F05AF902460B98C00F01D02D2007E0F4
:100700002068810701D52B2002E0202101EAC000EA
:10071000032A099001D0072A05DB034641462046FB
:1007200000F0F6FA0BE12078800601D5E06900E0E0
:100730000620B8F1650F814606D0B8F1660F18D0D3
:10074000B8F1670F70D131E00020B9F1110F0090BE
:1007500001DB112301E009F101030AAA01A90CA898
:10076000FFF7E2FEDDE90C70002609F10105834682
:1007700047E001204B4600904FF000470AAA01A92C
:100780000CA8FFF7D1FEDDE90DB00C995D460026FF
:1007900010B909F101000D18B9EB050003D4C0F13F
:1007A000FF3609F10105A5EB09002BE0B9F1010FB6
:1007B00001DA4FF001090020B9F1110F009048460D
:1007C00001DD112300E003460AAA01A90CA8FFF7E6
:1007D000ABFEDDE90C704D4600268346207800070D
:1007E0000AD4AB4500DA5D4601A8012D04DD4119AC
:1007F00011F8011C302907D04F4502DA17F1040F18
:1008000004DA012082460FE06D1EEEE7002F02DCC5
:10081000ED1B3E4403E0781CA84200DD7D1CB81BA4
:1008200000F1010A4FF000472078000703D4AA45E1
:1008300001DB4FF0FF3A0021B7F1004F0DF1430803
:100840008DF8431024D002202B23002F01DA7F42A1
:100850002D230A21021EA0F1010000DC5FB197FBED
:10086000F1FC97FBF1F201FB1C7C17460CF1300CFC
:1008700008F801CDEEE7A8F1010003702188090511
:1008800001D5452100E06521A0F1010800F8011C17
:1008900009980FA9A1EB0807FF1D00B1012041191C
:1008A00001EBEA70A1693844081A401EA061207863
:1008B000C00602D42046FFF7B3FC099828B1D4E95A
:1008C00001219047206A401C20622078C00622D572
:1008D0002046FFF7A5FC1EE0002E04DBB34502DD39
:1008E00001A8805D00E03020D4E901219047206A12
:1008F000401C2062761CAAF101005FEA000A0AD1BE
:1009000000F0BCF9C0680168405CD4E9012190475F
:10091000206A401C2062281EA5F10105DCDC07E0EE
:10092000D4E9012118F8010B9047206A401C20628D
:10093000381EA7F10107F3DC2046FFF787FC0320F0
:1009400011B041E62DE9F04F04460D46D21D22F0CC
:10095000070089B0D0E900974846394604F024F8EA
:100960000246F80F01D02D2307E02068810701D54A
:100970002B2302E0202101EAC0038DF820300BB1C7
:10098000012000E00020032A824601D0072A04DB70
:100990002946204600F0BCF93FE12078800601D4CA
:1009A0000D2500E0E569C7F30A560D2D49DA00214F
:1009B0004FEA175B08464FF00000002F00F440009C
:1009C00007DA00EB80004FF4400100EBD07001EA41
:1009D00060008115012901DD4FF0FF3100224FEA4F
:1009E000850CBCF1180F06D31346ACF118004FF07C
:1009F0008052C24003E04FF4801323FA0CF30CF151
:100A00000C0CBCF1200F04D3ACF1200C09FA0CF053
:100A100001E007FA0CF000294FF0004801DD18B999
:100A20000FE00ED140450CD319EB02095F4121B90B
:100A3000404502D19F4329EA0209BBEB175F00D072
:100A4000761C2088000502D57B48784402E07A486D
:100A50007844193808AA302302F80A30037C0AF1D6
:100A60000101002E0AF1020A53546A4602DC4FF0DB
:100A7000300101E04FF031014FF001088DF8001016
:100A800002D0A6F2FF3603E059EA470100D06B4ED0
:100A9000002D02DC2178090704D54FF002082E2131
:100AA0008DF80110C44600210BE0C7F303433F015A
:100AB000C35C491C6D1E02F80830052908F10108C5
:100AC00001DA002DF1DC00210CE000EB1973491C68
:100AD0001B786D1E082902F808304FEA091908F141
:100AE000010801DA002DF0DC21688B0602D516E042
:100AF000A8F10108E04505DD02EB080313F8013C0D
:100B0000302BF5D0B8F1000F09DD02EB080313F824
:100B1000013C2E2B03D1090701D4A8F10108002DB7
:100B200005DD3E2102F808106D1E08F10108407C29
:100B3000002E02F8080008F1010804DA2D207642A0
:100B400002F8080002E02B2002F808000A214FF406
:100B50007A70864208F101080BDB96FBF0F3303324
:100B600002F8083096FBF0F308F1010800FB136669
:100B700001E0642E0CDB642096FBF0F3303302F8C6
:100B8000083096FBF0F308F1010800FB136601E062
:100B90000A2E06DB96FBF1F0303002F8080008F16F
:100BA000010896FBF1F001FB1060303002F80800FC
:100BB000A16908F1010808EB050202EB0A00081A16
:100BC000A0612078C00602D42046FFF729FB216AE5
:100BD00008AE01EB0A00206204E0D4E9012116F816
:100BE000010B9047BAF1010AF7D22078C00602D56E
:100BF0002046FFF715FB6E4609E016F8010B3E286C
:100C00000FD0D4E901219047206A401C2062B8F13E
:100C10000108F2D22046FFF719FB09B00320BDE816
:100C2000F08F206A2844206203E0D4E901213020BB
:100C300090476D1EEBD3F8E70E45000002FCFFFF66
:100C400001694A1C02610878704700B58FB0CDE990
:100C500001310021059105497944CDE90310114680
:100C60006846FFF741FB0FB000BD0000E5FFFFFF46
:100C70000A6802F8010B0A607047000000487047DC
:100C80008800002030B5B0F10A0271F100034FEA8C
:100C9000900E4EEA817EB0EB0E0061EB91014FEABF
:100CA000101E4EEA017E10EB0E0041EB11114FEACF
:100CB000102E4EEA016E10EB0E0041EB11214FEAAF
:100CC000104E4EEA014E10EB0E0041EB1141401860
:100CD00041F100014FEAD00040EA41704FEAD101F2
:100CE0004FEA810444EA907410EB800544EB010460
:100CF0006D1944EB0404521BA3414FF0000348BF9D
:100D00000A3200D530BD401C41F1000130BD000069
:100D10002DE9F0411F46044603260168072A01F425
:100D2000006004DB08B116A505E016A503E008B1D4
:100D300015A500E015A521F010002060A069C01ED7
:100D4000A0610FB1401EA0612046FFF769FA4FB1C4
:100D5000D4E9012138469047206A401C2062C01C1B
:100D6000206206E0206AFAE7D4E9012115F8010BB8
:100D70009047761EF8D22046FFF768FABDE8F0816A
:100D80004E414E006E616E00494E4600696E66002F
:100D90002DE9F047814616468AB0354878440DC89B
:100DA0008DE80D0032487844801C03AC0DC884E8FF
:100DB0000D0041F69B300844372190FBF1F290FB87
:100DC000F1F5A5F1800501FB12041B3C02D564423C
:100DD000012000E00020DFF898A080460027FA44B8
:100DE000AAF1BE0A0EE0E0070AD03246684607EBD9
:100DF000470101230AEB810103F09FFC8DE8070006
:100E000064107F1C002CEED1194F7F44AE3F19E0D7
:100E1000E80715D007EB04100DF1180A90E80E0052
:100E20008AE80E00C068F04201D198190890324655
:100E3000012306A903A803F080FC03AB83E80700A5
:100E40006D10641C002DE3D14FF00103324669465A
:100E5000B8F1000F03A802D003F05AFC01E003F040
:100E60006CFCC9E90001C9F808200AB0BDE8F087A8
:100E70004C42000000487047680000207546FFF7AC
:100E8000F9FFAE4605006946534620F00700854647
:100E900018B020B5FFF79EF9BDE820404FF00006DE
:100EA0004FF000074FF000084FF0000BAC46ACE8E5
:100EB000C009ACE8C009ACE8C009ACE8C00921F041
:100EC00007018D46704710B50446AFF300802046F9
:100ED000BDE81040FFF76AB94FF0013C50F8042B11
:100EE00051F8043B9A4221D1A2EB0C03934313EA3D
:100EF000CC1317D150F8042B51F8043B9A4215D16A
:100F0000A2EB0C03934313EACC130BD150F8042B40
:100F100051F8043B9A4209D1A2EB0C03934313EA24
:100F2000CC13DBD04FF00000704700BFD01A01BADD
:100F3000B1FA81F101F0180122FA01F0CB40DBB2E5
:100F4000C0B2C01AC1F120012CFA01F3D11A9143A9
:100F500011EAC311E6D1704701491820ABBEFEE784
:100F600026000200704700000146406A826A12F0C3
:100F7000500F03D0006A026B084610470168826A6E
:100F800042F400728262896801F46021B1F5602F39
:100F900001D1017B11B100F053B900BF816A21F486
:100FA00080718162816AC90448BF00F049B9816AD1
:100FB00041F00101816200F043B90000406A816A9A
:100FC00041F040018162C16A41F00401C16200F058
:100FD0004BB90000406A00F045B90000B0B582B0DE
:100FE00004460020019021688A68D2074FD18868A2
:100FF00040F00100886040F26000C2F2000000682A
:101000004DF68361C4F21B31A0FB0101880C0190F5
:101010000198A0B1019801380190019878B1019828
:1010200001380190019850B1019801380190019860
:1010300028B101980138019001980028EAD100F008
:1010400031FD21688968C9071CD1054603E000BF4E
:101050008068C0071AD100F025FD411B20680329D4
:10106000F6D38168C907F3D1A06A40F01000A062EE
:10107000E06A40F00100E062002084F824000120D2
:1010800002B0B0BD002002B0B0BD00BF002002B071
:10109000B0BD0000FEE7000040F21410C2F20000F4
:1010A00000F070BA70470000EFF3108072B600BF16
:1010B000FEE7000010B581B00022009290F82420D5
:1010C000012A03D10221084601B010BD4B6801225C
:1010D000062B80F8242017D8D0F800C003EB830338
:1010E0005A1F1F23DCF834E003FA02F40B682EEADF
:1010F000040403FA02F22243CCF83420092B03EB58
:10110000430219D936E000BFD0F800C00C2B03EB26
:1011100083021DD8233A1F23DCF830E003FA02F4DF
:101120000B682EEA040403FA02F22243CCF83020C2
:10113000092B03EB43021DD8DCF810300724896823
:101140009440A34391401943CCF81010002130E0A3
:10115000413A1F23DCF82CE003FA02F40B682EEA74
:10116000040403FA02F22243CCF82C20092B03EBEF
:101170004302E1D9DCF80CE01E3A07248968944068
:101180002EEA0404914023F001022143102ACCF8F6
:101190000C100DD142F20841C4F20101A1F1080284
:1011A00094450DD0816A41F020018162012100E067
:1011B0000021002280F82420084601B010BD00BFA5
:1011C0000A68120230D40A68102B42F400020A6046
:1011D0002CD140F26001C2F2000109684DF6836231
:1011E000C4F21B32A1FB0212910C01EB81014900F8
:1011F00000910099E1B10099013900910099C9B1BC
:101200000099013900910099B1B10099013900911B
:10121000009999B1009901390091009900294FF086
:101220000001E8D1C5E700BF0021C2E70021C0E707
:101230000021BEE70021BCE70021BAE70021B8E7A2
:10124000006842F20041C4F20101884218BF7047B1
:1012500040F2C800C2F20000D0E90312C0E9051252
:10126000704700007047000070470000B0B50028CC
:1012700000F0A8800446806A20B121688868C00711
:101280000BD114E00020E06284F82400204600F036
:101290009BF821688868C00709D0886820F00100A1
:1012A000886000F0FFFB21688A68D20726D1A06A17
:1012B000C0063AD4A06A41F2021290430230A06202
:1012C000E069D4E9013240EA030C531EB3FA83F318
:1012D0005D091346B2F5807F18BF2B02207D257B68
:1012E00001284CEA450030D135B3A56A45F0200508
:1012F000A562E56A45F00105E56226E0054602E0E3
:101300008868C007D3D000F0CDFB401B21680328BC
:10131000F6D38868C007F3D0A06A40F01000A0623E
:10132000E06A40F00100E062A06AA06A40F01000AC
:10133000A0620120B0BD00BFD4F818C04EF6000571
:10134000CFF6FF7505EB4C352B434D68B2F5807F2A
:1013500025F4694543EA05034B608B684FF2FD7540
:10136000CFF6E17503EA050343EA00038B6001D081
:10137000012A07D122690023CFF6F07303EB025252
:1013800001E000BF0022CB6A23F470031A43CA6253
:10139000896840F6FE62CFF61F721140814207D184
:1013A0000020E062A16A012262F30101A162B0BDE6
:1013B000A06A40F0100020F00200A062E06A40F055
:1013C0000100E0620120B0BD70B586B0044640F671
:1013D0000000C4F20100216800F5E05200269142AD
:1013E0000596049602D006B070BD00BF41F2180108
:1013F000C4F202010A6842F400720A600A6802F448
:1014000000720192019A0A6842F004020A600968B7
:1014100001F0040101910199062102910321039138
:1014200002A900F025FA40F214150820C2F20005C6
:10143000C4F202004FF40072C5E9000605F1100085
:1014400080214FF400634FF0200C4FF4805E80E861
:101450000C502846C5E9026100F064F9002818BF65
:10146000FFF722FE25626C6206B070BD70B51546AE
:101470000446006842F60002C4F2010290420E46A1
:1014800005D042F20041C4F20101884209D142F282
:101490000440C4F20100006810F4702F1CBF01204A
:1014A00070BD94F82400012804BF022070BD012003
:1014B00084F824002046FFF791FD18B1002184F83C
:1014C000241070BD42F204402168A26AC4F20100F7
:1014D00040F601739A4300F57F7302F580729942DA
:1014E000A26243D0A06A20F48010A0624868400540
:1014F00004D5A06A012262F30D30A062A26A002026
:10150000D2044FF0000244BFE26A22F00602E26217
:1015100084F82400206A40F66972C0F6000240F6A2
:10152000D57340F6BD7C00F1280EC0F60003C0F66E
:10153000000C8EE80C106FF002020A608A682B46DD
:1015400042F480728A604C31324600F02FF92068F4
:10155000816801F460228168B2F5602F0CBF41F40C
:10156000A00141F480118160002070BD026812F476
:10157000702FB7D0A26A42F48012A26200684005C0
:10158000BCD5B6E710B5D0E90FCE0168DCF8003065
:101590000A6823FA0EF35C072AD512F0040427D058
:1015A0000A68920603D40A6822F004020A602F2215
:1015B000C4F20202914240F20402C4F202025BDD74
:1015C0003023C4F20203994272D04423C4F20203CE
:1015D000994273D05823C4F20203994240F07A80B2
:1015E0004FF480231360C16A002940F098806FE0B7
:1015F0009C0727D512F0020424D00A68920606D46C
:101600000A6822F00A020A60012280F821202F22B3
:10161000C4F20202914240F20402C4F202023BDD33
:101620003023C4F20203994260D04423C4F202037F
:1016300099425FD05823C4F20203994260D14FF41B
:10164000003365E01B0743D512F0080208BF10BD48
:101650000A6822F00E020A60012101FA0EF2CCF8AB
:101660000420816380F82110016B0022002980F89A
:10167000202054D12CE000BF0823C4F20203994279
:1016800022D01C23C4F20203994223D140231360C9
:10169000C16A002943D11BE00823C4F20203994226
:1016A0002CD01C23C4F20203994229D120232FE01D
:1016B0004FF480631360C16A89BB09E04FF4804333
:1016C0001360C16A59BB03E004231360C16A31BBD4
:1016D00010BD00BF02F168044FF08063A14208BF53
:1016E0004FF480031360C16AC9B9F1E74FF4007386
:1016F0000EE000BF4FF400530AE000BF022307E0F2
:1017000002F168044FF00073A14208BF4FF40013C8
:101710001360816A0022002980F82020D8D0BDE81B
:1017200010400847014600284FF0010008BF7047ED
:101730002DE9F043D1F800C04FF6F873CBF6FD73F6
:101740004CF6CD426344CCF6CC42A3FB02236FF0AF
:10175000030707EA93030027C4F2020701F10C090B
:10176000C1E90F730223D1E9012E99E87002D1F883
:101770001C8081F82130DCF8003043F6F077BB4361
:101780001A4342EA0E0222432A43324342EA090242
:1017900042EA0802CCF8002000228A6381F8210086
:1017A00081F820200020BDE8F0437047F0B590F8A4
:1017B00020C0BCF1010F32D04FF0010E80F820E0C4
:1017C00090F821C0BCF1010F26D14FF0020C80F837
:1017D00021C04FF0000CC0F838C0D0E900C4C56A81
:1017E000C66BDCF80070102C27F00107CCF80070F5
:1017F000006C0EFA00F070600846CCF8043004BFAC
:1018000010460A46CCF80800CCF80C20DCF80000A2
:1018100045B140F00E000DE0002180F820100220BC
:10182000F0BD00BF20F00400CCF80000DCF80000A0
:1018300040F00A00CCF80000DCF8000040F00100A5
:10184000CCF800000020F0BDB0B5044600F02AF945
:10185000054640F25800C2F200000078611C18BF33
:10186000044400BF00F01EF9401BA042FAD3B0BDF3
:101870002DE9F04F82B00E68002E00F0038141F296
:101880000042C4F20102042340F2004E904208BF1D
:1018900003234FF6FF7CC4F2010E009300240123C2
:1018A000C1F2100C4FF0000A4FF0000949E000BFF0
:1018B000012704F00C030F229A402BEA020207FAD8
:1018C00003F34FEA9A051A4346F82520D1F804B0ED
:1018D00040F20C455FEACB22DEF8082054BF22EA32
:1018E000080242EA0802C4F20105CEF808202A687C
:1018F0005FEA8B2354BF22EA080242EA08022A6008
:101900005FEA8B33DEF8042054BF22EA080242EA81
:1019100008025FEACB33CEF80420DEF800204FF057
:10192000010354BF22EA080242EA0802CEF800206E
:101930000E680AF1010A36FA0AF204F1040400F012
:10194000A18003FA0AF816EA080FF1D04E6866453E
:1019500012DC122E56D8DFE806F0350B45495555F6
:1019600055555555555555555555554D510000BF73
:10197000D1F80C9046E000BF4FF6FF72C1F2210291
:1019800096420FDC0022C1F2110296421AD00022C8
:10199000C1F21202964215D00022C1F221029642F3
:1019A00010D02FE00022C1F2220296420AD000227B
:1019B000C1F23102964205D00022C1F232029642B3
:1019C00020D100BF8A684AB1012A14BFC0F8148030
:1019D000C0F810804FF0080914E000BF4FF0040970
:1019E00010E000BFCA6802F108090BE04FF00009DF
:1019F00008E000BFCA6802F1040903E0CA6802F106
:101A00000C0900BF22460646BAF1080F24BF203A4F
:101A1000043637680F25954027EA050509FA02F2D2
:101A20002A433260CA79D2067FF582AF41F21803A9
:101A3000C4F202031A68AEF57E7642F001021A6023
:101A40001A6802F001020192019A2AF0030256F884
:101A500002B040F60002C4F20102904210D040F6FB
:101A60000042C4F2010290423FF422AF41F2000270
:101A7000C4F20102009F904208BF022719E700BF8D
:101A8000002716E702B0BDE8F08F0000806808402C
:101A900018BF012070470000002A08BF0904016137
:101AA0007047000040F2E810C2F200000068704782
:101AB00040F2580040F2E811C2F20000C2F2000108
:101AC00000780A68104408607047000080B542F250
:101AD0000000C4F20200016841F01001016003201F
:101AE00000F08EF80F2000F005F800F027F8002035
:101AF00080BD000070B540F25806C2F2000640F208
:101B000060013278C2F200014FF47A730968B3FBC6
:101B1000F2F20446B1FBF2F1084600F0C1FB0F2CD3
:101B20004FF0010508D838B94FF0FF3021460022A8
:101B3000002500F039F87460284670BD82B041F28B
:101B40001800C4F202000168022241F001010160A4
:101B5000016801F0010101910199416841F0805152
:101B60004160406800F08050009000980420C4F26A
:101B70000100016862F31A61016002B07047000061
:101B8000002848BF7047C1B200F01F00012202FACE
:101B900000F04EF20012CEF2000242EAD10121F032
:101BA000030108607047000010B54EF60C5CCEF2E1
:101BB000000CDCF80030C3F3022E8EF00704042C76
:101BC00028BF0424BEF103034FF0FF3E0EFA04F4D5
:101BD00038BF0023A14399400EFA03F39A431143FF
:101BE00000F00F0200F160430901043A03F5644379
:101BF0006244002848BF02F10C03197010BD0000B8
:101C00004EF60C51CEF200010A684FF6FF031A405F
:101C100060F30A2242F0806040F0FD700860704777
:101C20002DE9F04182B00446007841F21C06C0075D
:101C3000C4F202064AD0306810F0805808D13068EB
:101C400040F080503060306800F080500190019882
:101C500047F20007C4F200073868C00512D438689C
:101C600040F480703860FFF71DFF05463868C005F6
:101C700008D4FFF717FF401B6428F7D9032002B0F0
:101C8000BDE8F081706810F4407012D0616801F412
:101C9000407188420DD0706840F24042C4F2422246
:101CA000012320F4407113600023C00713607160AA
:101CB0002AD17068616820F440700843B8F1000FC1
:101CC000706003D1306820F0805030602068810758
:101CD00007D556F8181CA26821F44041114346F874
:101CE000181CC00604D4002002B0BDE8F08100BF7B
:101CF00056F8180CE16820F48000084346F8180CE8
:101D0000002002B0BDE8F081FFF7CCFE054641F2AD
:101D1000883700BF70688007CBD4FFF7C3FE401B35
:101D2000B8424FF00300F5D9EBE700002DE9F0438E
:101D300081B0002800F0858042F20008C4F2020859
:101D40000446D8F800000D4600F0070088420CD287
:101D5000D8F8000020F007002843C8F80000D8F8A1
:101D6000000000F00700A8426BD1206841F204098E
:101D70008107C4F2020917D5410705D5D9F800102B
:101D800041F4E061C9F80010010705D5D9F8001049
:101D900041F46051C9F80010D9F80010A26821F090
:101DA000F0011143C9F80010C00741D1D8F8000074
:101DB00000F00700A8420CD9D8F8000020F0070076
:101DC0002843C8F80000D8F8000000F00700A84237
:101DD00037D12068410707D5D9F80010E26821F40F
:101DE000E0611143C9F80010000708D5D9F80000D8
:101DF000216920F4605040EAC100C9F80000D9F818
:101E0000002002F00C00082841F20020C0F27A0005
:101E100050D145F21603C2F38341C0F60003595C6A
:101E2000D2033BD440F60010C0F23D00484341E0ED
:101E3000606802280AD001282AD159F8041C8903B5
:101E400008D4012001B0BDE8F08300BF59F8041C9C
:101E50008901F6D5D9F8001021F003010843C9F82B
:101E60000000FFF71FFE064641F28837D9F8000050
:101E7000616800F00C00B0EB810F97D0FFF712FE05
:101E8000801BB842F2D9032001B0BDE8F08300BF47
:101E900059F8041C8907D4D5DCE700BFD9F8002025
:101EA00045F21403C2F34042C0F600039A5C484373
:101EB000B0FBF2F0D9F8001045F20402C1F30311AF
:101EC000C0F60002515C40F2600220FA01F140F2DB
:101ED0005C00C2F200000068C2F200021160FFF76D
:101EE00009FE002001B0BDE8F08300002DE9F041BB
:101EF00082B0002868D00446007841F20006C0078E
:101F0000C4F2020625D0706800F00C0004281BD033
:101F1000706800F00C00082802D17068C00313D468
:101F20006068002800F06881B0F5A02F00F07C8187
:101F3000B0F5803F00F07C81306820F48030306064
:101F4000306820F4802076E13068800301D5606835
:101F5000D0B32078800718D5706810F00C0F07D028
:101F6000706800F00C0008286ED17068C0036BD454
:101F70003068800702D52069012825D13068616961
:101F800020F0F80040EAC1003060207800071FD43C
:101F90002078400732D4E56995B1706800F00C00F4
:101FA000082840F08F80012D0ED07068216A00F45F
:101FB00080328A4208D1616A00F47010884203D1ED
:101FC000002002B0BDE8F081012002B0BDE8F08140
:101FD000A069002862D00020C4F242200121C0F88C
:101FE0008014FFF75FFD0546706A800700F18C8062
:101FF000FFF758FD401B0228F6D92AE1F06910F0DE
:10200000805808D1F06940F08050F061F06900F02C
:1020100080500090009847F20007C4F2000738682B
:10202000C00529D4386840F480703860FFF73AFD65
:10203000054600BF3868C0051ED4FFF733FD401BBE
:102040006428F7D905E100BF2069002840F20000AC
:10205000C4F2422000F0828001210160FFF722FDDE
:10206000054600BF306880073FF588AFFFF71AFDCF
:10207000401B0228F6D9ECE0E068002800F08080E0
:10208000052800F09780012800F09880306A20F041
:1020900001003062306A20F0040092E00020C4F2B7
:1020A00042200021C0F88014FFF7FCFC054600BF69
:1020B000706A80077FF56CAFFFF7F4FC401B0228C5
:1020C000F6D9C6E00027C4F2422700203866FFF7A1
:1020D000E9FC022D05460BD13068800140F1BE803D
:1020E000FFF7E0FC401B02284FF00300F4D968E73B
:1020F000306880017FF564AFFFF7D4FC401B0228F5
:102100004FF00300F4D95CE740F26000C2F2000037
:10211000006844F6D351C1F26201A0FB0101480AF4
:10212000019000BF00BF0198411E002801913FF4BB
:102130002FAF00BF0198411E002801913FF428AF46
:1021400000BF0198411E002801913FF421AF00BF5C
:102150000198411E00280191E4D119E70021016096
:10216000FFF7A0FC054600BF306880077FF50DAF84
:10217000FFF798FC401B02284FF00300F4D920E73A
:10218000306A20F001003062306A20F004003062D2
:10219000FFF788FC054641F2883700BF306A8007A8
:1021A00020D5FFF77FFC401BB8424FF00300F5D964
:1021B00007E700BF306A40F004003062306A40F048
:1021C00001003062FFF76EFC054641F2883700BF20
:1021D000306A800706D4FFF765FC401BB842F7D988
:1021E00037E000BFB8F1000F7FF4D5AEF06920F002
:1021F0008050F061CFE600BF306820F4803030605E
:10220000306820F480203060FFF74CFC054600BFAA
:10221000306880037FF59DAEFFF744FC401B6428C7
:102220004FF00300F4D9CCE6306840F480203060F1
:10223000306840F480303060FFF734FC054600BF62
:10224000306880033FF585AEFFF72CFC401B642807
:10225000F6D9032002B0BDE8F08100BF206AB0F5D6
:10226000803F05D17168A26821F40031114371608B
:102270007168626A21F4741111430843706001208F
:102280003866FFF70FFC0446306880013FF598AED2
:10229000FFF708FC001B02284FF00300F4D990E67A
:1022A000411E0020B0EB116F1CBF012070474EF2A1
:1022B0001002CEF2000251604EF62351CEF2000120
:1022C000F0230B700721906011607047B0B590F853
:1022D0003C20012A04BF0220B0BD01F108053CCD1D
:1022E000D1E900CE23F47C5322F470521A432EF429
:1022F000F0431A432CF4E0431A4324F4C0431A4336
:102300002A43C96922F480420368114359640021B9
:1023100080F83C100846B0BD10B590F83C20012A6A
:102320004FF0020233D080F83D200268D2F804E07A
:10233000D2F808C00C682EF07003234340F2FF74FB
:10234000C4F20004A24253600ADCB2F1804F13D001
:1023500040F20043C4F200039A420DD011E000BFE6
:1023600042F60043C4F201039A4205D040F600034E
:10237000C4F200039A4204D149682CF08003194347
:1023800091600121002280F83D1080F83C20104629
:1023900010BD000041B1082910D0042914BF00F17C
:1023A000450200F143020BE090F84220012A1CBFD5
:1023B00001207047022280F8422013E000F144021D
:1023C0001278012A1CBF012070470222082907D079
:1023D000042914BF80F8452080F8432002E000BFA4
:1023E00080F84420006801F01F010422036A02FA09
:1023F00001F123EA01020262026A11430162416CA7
:1024000040F2FF72C4F2000241F400419042416484
:102410000ADCB0F1804F13D040F20041C4F2000159
:1024200088420DD013E000BF42F60041C4F2010122
:10243000884205D040F60001C4F20001884206D16E
:10244000816801F00701062904BF00207047016878
:1024500041F00101016000207047000010B50268E2
:1024600001F01F0E4FF0040C146A0CFA0EF324EA6C
:1024700003031362136A1362146A41F211131C42BC
:1024800006D1D2F820C040F244441CEA040F0DD01B
:10249000146A1C4211D1136A40F2444423420CD105
:1024A000136823F00103136007E000BF546C24F4A9
:1024B00000445464146A1C42EDD008290CD004294D
:1024C00010D000294FF0010114BF80F8451080F8AA
:1024D0004210002010BD00BF012180F844100020F0
:1024E00010BD00BF012180F84310002010BD000086
:1024F000002804BF0120704710B5044690F83D0045
:1025000028B9002084F83C00204600F067F802203B
:1025100084F83D00206840F2FF730268C4F20003B3
:1025200042F6004C9842C4F2010C15DCB0F1804F29
:102530001AD040F20041C4F20001884214D09842FF
:1025400018DCB0F1804F1DD040F20041C4F2000110
:10255000884217D01AE000BF604505D040F6000160
:10256000C4F200018842EAD1A16822F070020A4355
:102570009842E6DD604505D040F60001C4F2000156
:10258000884203D1216922F440720A43A36922F0F0
:102590008001D4F804E0E268194360450160C2623A
:1025A000C0F828E002D16169CCF830100121416106
:1025B000002084F8461084F83E1084F83F1084F818
:1025C000401084F8411084F8421084F8431084F8D5
:1025D000441084F8451084F83D1010BD81B00068A7
:1025E000B0F1804F02D001B0704700BF41F21C0033
:1025F000C4F20200016841F001010160006800F0CE
:1026000001000090009801B07047000090F83D1064
:1026100001291CBF01207047022180F83D1000688D
:1026200040F2FF71C4F20001884209DCB0F1804F32
:1026300012D040F20041C4F2000188420CD012E0F6
:1026400042F60041C4F20101884205D040F6000183
:10265000C4F20001884206D1816801F00701062911
:1026600004BF00207047016841F0010101600020B3
:102670007047000080B590F83C20012A4FF002021C
:1026800000F0C28080F83D20D0F800C04FF677728D
:10269000DCF8083023EA0202CCF808200B684F2B44
:1026A00028DC1F2B44DD202B45D0302B43D0402B82
:1026B00040F0AC80D1F804E0C968DCF82030DCF8E8
:1026C000202022F00102CCF82020DCF8182022F093
:1026D000F00242EA011123F00A0242EA0E02CCF8AB
:1026E0001810CCF82020DCF8081041F0470121F048
:1026F000300180E06F2B27DDB3F5005F48D0B3F5E4
:10270000805F7AD0702B40F08180D1E901E3C96805
:10271000DCF8082043EA0E0322F47F4243EA012159
:102720001143CCF80810DCF8081041F0770162E0A2
:102730000BB1102B6AD1DCF8081021F0700119439D
:1027400041F0070157E000BF502B35D0602B5DD121
:10275000D1F804E0C968DCF82030DCF8202022F051
:102760001002CCF82020DCF8182022F4704242EA53
:10277000013123F0A00242EA0E12CCF81810CCF876
:102780002020DCF8081041F0670121F0100132E050
:10279000D1E901E3C968DCF8082043EA0E0322F41A
:1027A0007F4243EA01211143CCF80810DCF80810FD
:1027B00041F480411FE000BFD1F804E0C968DCF8B3
:1027C0002030DCF8202022F00102CCF82020DCF8B8
:1027D000182022F0F00242EA011123F00A0242EA34
:1027E0000E02CCF81810CCF82020DCF8081041F0CC
:1027F000570121F02001CCF808100022012180F8B7
:102800003D10002180F83C10104680BD0122F5E704
:1028100070B586B040F60004C4F20104006804F507
:10282000105200219042049102D006B070BD00BF4A
:1028300041F21800C4F20200016802AD41F0080143
:1028400001600168022601F0080101910199016807
:1028500041F0040101600068294600F00400019085
:1028600001984FF40050029004F58060039605969D
:10287000FEF7FEFF4FF48070CDE9020620462946A0
:102880000596FEF7F5FF06B070BD00002DE9F04398
:1028900090F83C30012B04BF0220BDE8F0834FEAE2
:1028A000B202032A3CD8DFE802F0034381BD00BF37
:1028B000036842F600461D6A1A6AC4F2010622F055
:1028C00001021A621A465C6852F818CFB3428E6849
:1028D000D1F800E025F0020545EA06050CD1CE68E6
:1028E000D1E9057824F4407425F00C0526F004069F
:1028F0003C43354344EA08042CF0730747EA0E07CB
:102900005C609F614F6809695F631D629F6947F062
:1029100008079F619F6927F004079F61B2E000BF2D
:102920000121002280F83C200846BDE8F08300BF6A
:10293000036842F600461D6A1A6AC4F2010622F0D4
:1029400010021A621A46D3F804C052F8184FB34264
:102950008E68D1F800E025F0200545EA061510D173
:10296000CE68D1E9058725F0C0096FF0400505EA7A
:1029700006152CF4406647EA080745EA090546EAC9
:10298000870C24F4E64444EA0E27C3F804C09F6190
:102990004F6809699F631D629F6947F400679F61E3
:1029A0009F6927F480679F616BE000BF036842F670
:1029B00000461D6A1A6AC4F2010622F480721A6285
:1029C0001A46D3F804C052F81CEFB3428E680C6864
:1029D00025F4007545EA062511D1CE68D1E90587B1
:1029E00025F44069360240F2FF4526EA05052CF43D
:1029F000405647EA080745EA090546EA071C2EF053
:102A000073072743C3F804C0DF614F680969DF63B8
:102A10001D62DF6947F00807DF61DF6927F00407FF
:102A2000DF612FE0036842F60047D3F820C01A6A3E
:102A3000C4F2010722F480521A621A465C6852F806
:102A40001C5FD1F800E08E68BB4204D14F6924F4CA
:102A5000804444EA87142CF4005747EA063725F4EB
:102A6000E64646EA0E265C60DE614E6809691E6431
:102A70001F62DF6947F40067DF61DF6927F4806761
:102A8000DF6109021368194311600021002280F8F8
:102A90003C200846BDE8F083002804BF01207047B1
:102AA00010B5044690F83D0028B9002084F83C0099
:102AB000204600F067F8022084F83D00206840F2CC
:102AC000FF730268C4F2000342F6004C9842C4F25D
:102AD000010C15DCB0F1804F1AD040F20041C4F275
:102AE0000001884214D0984218DCB0F1804F1DD00C
:102AF00040F20041C4F20001884217D01AE000BF42
:102B0000604505D040F60001C4F200018842EAD1D8
:102B1000A16822F070020A439842E6DD604505D0C4
:102B200040F60001C4F20001884203D1216922F479
:102B300040720A43A36922F08001D4F804E0E268FD
:102B4000194360450160C262C0F828E002D16169A2
:102B5000CCF8301001214161002084F8461084F83F
:102B60003E1084F83F1084F8401084F8411084F837
:102B7000421084F8431084F8441084F8451084F817
:102B80003D1010BD81B0006842F60041C4F2010161
:102B9000884201D001B0704741F21800C4F202002F
:102BA000016841F400610160006800F40060009079
:102BB000009801B07047000041B1082910D00429E5
:102BC00014BF00F1410200F13F020BE090F83E20FB
:102BD000012A1CBF01207047022280F83E2013E02A
:102BE00000F140021278012A1CBF01207047022226
:102BF000082907D0042914BF80F8412080F83F201D
:102C000002E000BF80F84020006801F01F010122AF
:102C1000036A8A4023EA02010162036A42F64441E0
:102C2000C4F201011A43A1F14403984202620FD099
:102C300040F2FF71C4F20001884213DCB0F1804F12
:102C40001CD040F20041C4F20001884216D01CE0C2
:102C50000A6842F400420A6040F2FF71C4F20001C7
:102C60008842EBDD42F60041C4F20101884205D002
:102C700040F60001C4F20001884206D1816801F0EB
:102C80000701062904BF00207047016841F00101D7
:102C9000016000207047000080B5026801F01F0C41
:102CA000012303FA0CFE136A42F6444C23EA0E0396
:102CB000C4F2010C1362D2F820E0ACF144039A4252
:102CC000C2F820E013D15CF824EC41F211131EEAA3
:102CD000030F0CD1D2F820E040F244431EEA030F68
:102CE00005D1DCF8003023F40043CCF80030D2F8F2
:102CF00020C041F211131CEA030F06D1D2F820C004
:102D000040F244431CEA030F14D0082918D00429C8
:102D10000AD000294FF0010114BF80F8411080F85B
:102D20003E10002080BD00BF012180F83F10002030
:102D300080BD00BF136823F0010313600829E6D1AA
:102D4000012180F84010002080BD0000FEE7000057
:102D5000FEE70000FEE7000070470000704700003B
:102D6000FEF7A6BE70470000FEE700002DE9F04325
:102D700081B040F2000040F2C805C2F2000045F206
:102D8000260845F23307C2F200054FF0640900F14E
:102D90000804C0F6000800F12806C0F6000700BFCE
:102DA0000020002100F0BCF86869414600FB09F0F2
:102DB000020B2046FDF720FA204600F0C9F801205A
:102DC000002100F0ADF8A869394600EB8000020B45
:102DD0003046FDF711FA304600F0BAF86869B0F5F0
:102DE000166FDDD90020002100F09AF808A000F04D
:102DF000AFF80120002100F093F80AA000F0A8F835
:102E000040F6C41001B0BDE8F043FEF71DBD00BFA1
:102E10004865646566204172616C696B746120204D
:102E2000000000004D656E752067656369730000E2
:102E300080B50020002101F099F90120002101F066
:102E400095F90220BDE88040FEF7FEBC80B5322037
:102E5000FEF7FAFC0320002101F088F90020002190
:102E600001F084F90520FEF7EFFC0320002101F0BA
:102E70007DF90020002101F079F90120FEF7E4FC42
:102E80000320002101F072F90020002101F06EF909
:102E90000A20FEF7D9FC0220002101F067F900208A
:102EA000002101F063F90A20FEF7CEFC0220002188
:102EB00001F05CF90820002101F058F90120FEF72B
:102EC000C3FC0020002101F051F90820002101F08D
:102ED0004DF90120FEF7B8FC0020002101F046F971
:102EE0000120002101F042F90120FEF7ADFC012094
:102EF000FEF7AAFC0020002101F038F9062000218D
:102F000001F034F90120FEF79FFC0020002101F0C0
:102F10002DF90C200021BDE8804001F027B9000008
:102F200010B501280C4605D0002808BF44F08004E5
:102F300002E000BF44F0C004E0B20009002101F04B
:102F400015F904F00F000021BDE8104001F00EB9A2
:102F5000B0B50478002C08BFB0BD451EE0B2000932
:102F6000012101F003F904F00F00012101F0FEF846
:102F7000AC780135002CF1D1B0BD000096B0FEF761
:102F8000A5FD00240120CDE90944CDE907440490C2
:102F900008904FF4E0104FF4803102250D9004A802
:102FA0000394CDE90144CDE90514CDE90B51FEF7B9
:102FB0009DFF28B1EFF3108072B600BFFEE700BF9F
:102FC0000F20CDE90E054FF48060CDE911040EA865
:102FD00002211094FEF7AAFE20B1EFF3108072B622
:102FE000FEE700BF4FF400404FF002090290684630
:102FF000CDF80090FEF714FE20B1EFF3108072B60A
:10300000FEE700BF41F21804C4F20204206840F653
:10301000004840F0200020602068C4F2010800F061
:103020002000049004982068A8F5806540F0040012
:103030002060206841F6F84100F0040004900498F4
:103040002068002240F0080020602068002700F07F
:103050000800049004982846FEF71EFD4046032110
:1030600000224FF0030AFEF717FDF82004AE04908B
:103070004FF0010B28463146CDE905B7CDF81C903D
:10308000FEF7F6FB40463146CDE904ABCDE90679C3
:10309000FEF7EEFB4FF4E050CDE9040B2846314635
:1030A000CDE90699FEF7E4FB782004A981E88102C6
:1030B00040463146FEF7DCFB8020CDE90407404660
:1030C00031460697FEF7D4FB54F8040C002140F07B
:1030D000010044F8040C54F8040C002200F0010034
:1030E000049004980B20FEF75FFD0B20FEF748FDCF
:1030F00040F2A010C2F200004FF080414FF6FE7384
:103100000797CDE90577CDE90E77472280E886005D
:10311000C0E903378761FFF7EBF928B1EFF31080BF
:1031200072B600BFFEE700BF4FF48050049040F23B
:10313000A010C2F2000004A9FFF79CFA20B1EFF33F
:10314000108072B6FEE700BF40F2A010C2F200008D
:103150000EA9FFF7E1F828B1EFF3108072B600BFB7
:10316000FEE700BF40F25810002108F50052C2F2FD
:10317000000040F23633CDE900110A91C0E9002188
:10318000C0E90213C0E904118161FFF785FC28B191
:10319000EFF3108072B600BFFEE700BF40F2581098
:1031A000C2F200006946FFF7B7F828B1EFF31080CC
:1031B00072B600BFFEE700BF60200E9040F29B1089
:1031C0000F9040F258100024C2F200000EA9002215
:1031D000CDE91044CDE912441494FFF757FB28B110
:1031E000EFF3108072B600BFFEE700BF2020CDE9EC
:1031F00007044FF40050099040F25810C2F200004A
:1032000004A9CDE9044406940B94FFF75FF828B1B4
:10321000EFF3108072B600BFFEE700BF40F2581017
:10322000C2F20000FFF7F4FA40F2C805C2F200054E
:1032300008F5C051284640F81C1F4FF48071012446
:1032400000224FF46023022604730275C361C0E9B3
:1032500001210661FEF70AF820B1EFF3108072B683
:10326000FEE700BFCDE9044405F11C0404A9204693
:103270000696FDF71FFF18B1EFF3108072B6FEE758
:103280000220CDE9040004A92046FDF713FF18B180
:10329000EFF3108072B6FEE740F2A010C2F2000019
:1032A000FFF7B4F942F62C40C4F201000168022293
:1032B000A96000684AF20021C0F24A41B1FBF0F077
:1032C00005F10C0168602046FEF7D0F8FFF7BEFD5F
:1032D00000200021FFF724FE10A0FFF739FE40F286
:1032E000DC50FEF7B1FAFFF7A3FD00200021FFF745
:1032F00017FE0CA0FFF72CFE01200021FFF710FEA7
:103300000CA0FFF725FE41F28830FEF79DFAFFF78B
:103310008FFDFFF72BFD00F013F800BF4D657268BD
:103320006162610053697374656D204B6F6E7472D6
:103330006F6C00004564696C69796F720000000071
:1033400040F6004440F2C8074AF6AB2545F2600853
:1033500045F2500945F2700AC4F20104C2F20007B6
:10336000C2F6AA25C0F60008C0F60009C0F6000A99
:103370004FF0050B07E000BF20462021FEF786FB3B
:10338000012800F06B8020460821FEF77FFB012812
:1033900012D13868013080FB051202EBD27101EBCB
:1033A0004101A0EB41000528386053D8DFE800F068
:1033B00016442830363E00BF20461021FEF766FB3B
:1033C0000128D9D1386800282ED001380528386066
:1033D00040D8DFE800F00331151D232BFFF728FD4F
:1033E00000200021FFF79CFD45F28500C0F600009B
:1033F000FFF7AEFD45F27A060120C0F6000623E095
:10340000FFF716FD45F2CF060020C0F600061BE0D0
:10341000FFF70EFD0020464616E000BFFFF708FD4F
:1034200000204E4610E000BFC7F800B0FFF700FDD7
:103430000020564608E000BFFFF7FAFC45F2C70639
:103440000020C0F6000600BF0021FFF769FD3046EE
:10345000FFF77EFD6420FEF7F7F994E7386800F087
:1034600051F8000010B540F2C800C2F20000006838
:10347000052888BF10BDDFE800F003151D252D3598
:10348000FFF7D6FC00200021FFF74AFD45F285003A
:10349000C0F60000FFF75CFD45F27A04C0F60004B8
:1034A000012026E0FFF7C4FC45F2C704C0F6000483
:1034B00000201EE0FFF7BCFC45F2CF04C0F600047C
:1034C000002016E0FFF7B4FC45F26004C0F60004EB
:1034D00000200EE0FFF7ACFC45F25004C0F60004FB
:1034E000002006E0FFF7A4FC45F27004C0F60004DB
:1034F00000200021FFF714FD2046BDE81040FFF733
:1035000027BD000040F600490528C4F2010900F279
:10351000D980DFE810F007007901D7013D02B90238
:10352000010400BFFFF784FC40F2000042F62C4A81
:103530004AF2002B40F2C804C2F20000C4F2010AB1
:10354000C0F24A4BC2F2000400F118050FF6F4383D
:1035500000F128070FF6F83600200021FFF7E0FC05
:10356000DAF800004146BBFBF0F228466260FCF747
:1035700043FE2846FFF7ECFC01200021FFF7D0FCBA
:10358000A069314600EB8000020B3846FCF734FEA0
:103590003846FFF7DDFC48464021FEF777FA012860
:1035A000DAD1FFF745FC00200021FFF7B9FC45F216
:1035B000B900C0F60000FFF7CBFC4AF6AB2745F296
:1035C000600845F2500A45F2700BC2F6AA27C0F611
:1035D0000008C0F6000AC0F6000B052507E000BF92
:1035E00048462021FEF752FA012800F08985484616
:1035F0000821FEF74BFA012812D12068013080FB28
:10360000071202EBD27101EB4101A0EB410005284A
:10361000206053D8DFE800F0162C343C424800BF4D
:1036200048461021FEF732FA0128D9D12068D8B1D6
:1036300001380528206041D8DFE800F0041A222A6A
:10364000303600BFFFF7F4FB00200021FFF768FCD5
:1036500045F28500C0F60000FFF77AFC45F27A06D5
:103660000120C0F6000623E02560FFF7FBFE25E001
:10367000FFF7DEFB45F2C7060020C0F6000617E0A4
:10368000FFF7D6FB45F2CF060020C0F600060FE09C
:10369000FFF7CEFB002046460AE000BFFFF7C8FB5D
:1036A0000020564604E000BFFFF7C2FB00205E4644
:1036B0000021FFF735FC3046FFF74AFC6420FEF797
:1036C000C3F894E7FFF7B4FB00200021FFF728FCC4
:1036D0000FF68820FFF73CFC48464021FEF7D6F95C
:1036E0000128F9D1FFF7A4FB00200021FFF718FC07
:1036F00045F2B900C0F60000FFF72AFC40F2C8040A
:103700004AF6AB2745F2600845F2500A45F2700BC5
:10371000C2F20004C2F6AA27C0F60008C0F6000AEA
:10372000C0F6000B052506E048462021FEF7AEF95D
:10373000012800F0E58448460821FEF7A7F9012892
:1037400012D12068013080FB071202EBD27101EB2D
:103750004101A0EB41000528206051D8DFE800F0CE
:1037600016422830363D00BF48461021FEF78EF93C
:103770000128D9D1206800282ED0013805282060E2
:103780003ED8DFE800F0032F151D232AFFF750FB7A
:1037900000200021FFF7C4FB45F28500C0F60000C1
:1037A000FFF7D6FB45F27A060120C0F6000621E0BD
:1037B000FFF73EFB45F2CF060020C0F6000619E0F9
:1037C000FFF736FB0020464614E000BFFFF730FB52
:1037D000002056460EE000BF2560FFF729FB0020C1
:1037E0005E4607E0FFF724FB45F2C7060020C0F65F
:1037F000000600BF0021FFF793FB3046FFF7A8FB50
:103800006420FEF721F896E7FFF712FB0020002165
:10381000FFF786FB40F20004C2F20004606801F08A
:1038200011FB45F2400804F13805C0F600080246D5
:103830000B4628464146FCF7DFFC2846FFF788FB8D
:1038400049F6991A49F69A1749F6991BC3F6B97AB7
:10385000C9F69917CBF6B97B48460821FEF716F949
:10386000012801D1564606E048461021FEF70EF920
:1038700001281CD15E46606801F0E4FA02460B465E
:103880003846314601F0F4F801F0C0F860600020DD
:103890000021FFF745FB606801F0D4FA02460B46B1
:1038A00028464146FCF7A8FC2846FFF751FB48464E
:1038B0004021FEF7EBF8012800F0FA826420FDF7C2
:1038C000C3FFC9E7FFF7B4FA00200021FFF728FB88
:1038D00040F20004C2F20004254655F8480B01F0FE
:1038E000B1FA45F24808C0F6000802460B462846E1
:1038F0004146FCF781FC2846FFF72AFB49F6991A56
:1039000049F69A1645F2400BC3F6B97AC9F69916EC
:10391000C0F6000B48460821FEF7B8F8012803D18D
:10392000554647460BE000BF48461021FEF7AEF86B
:10393000012822D149F69915CBF6B9755F46206862
:1039400001F080FA02460B463046294601F090F815
:1039500001F05CF8206000200021FFF7E1FA254625
:1039600055F8480B01F06EFA02460B4628463946D8
:10397000FCF742FC2846FFF7EBFA48464021FEF7E9
:1039800085F8012800F028836420FDF75DFFC1E77A
:10399000FFF74EFA00200021FFF7C2FA0FF278700D
:1039A000FFF7D6FA4FF4FA60FDF74EFF0020002132
:1039B000FFF7B6FA45F2AB00C0F60000FFF7C8FA11
:1039C000A9F5806420464FF480610122FEF764F877
:1039D00041F28830FDF738FFFFF72AFA0020002176
:1039E000FFF79EFA45F29300C0F60000FFF7B0FA29
:1039F00020464FF400610122FEF74EF841F2883074
:103A0000FDF722FFFFF714FA00200021FFF788FAE4
:103A100045F29D00C0F60000FFF79AFA20464FF4E9
:103A200080510122FEF738F841F28830FDF70CFF93
:103A3000FFF7FEF900200021FFF772FA45F2E400DB
:103A4000C0F60000FFF784FA01200021FFF768FAB2
:103A50000FF2D460FFF77CFA40F25814C2F200046F
:103A600020460021FFF7A8F820460021FEF792FC2F
:103A70004FF4FA60FDF7E8FEFFF7DAF90FF2B460F1
:103A8000FFF766FAFFF75CFCFFF7D2F90020002190
:103A9000FFF746FA45F2D705C0F600052846FFF7BE
:103AA00057FA4FF4FA60FDF7CFFEFFF7C1F945F280
:103AB000E400C0F60000FFF74BFA01200021FFF7F9
:103AC0002FFA2846FFF744FA40F25815C2F20005D3
:103AD00028460021FFF7E0F828460021FEF7BEFC4B
:103AE00041F28830FDF7B0FEFFF7A2F90020002177
:103AF000FFF716FA45F2AB00C0F60000FFF728FA10
:103B000001200021FFF70CFA45F29D00C0F60000ED
:103B1000FFF71EFAA9F5806528464FF48051002270
:103B2000FDF7BAFF28464FF480610022FDF7B4FF8D
:103B300041F28830FDF788FEFFF77AF90020002176
:103B4000FFF7EEF945F29300C0F60000FFF700FA28
:103B500028464FF400610022FDF79EFF4FF4FA6003
:103B6000FDF772FEFFF764F900200021FFF7D8F996
:103B70000FF29450FFF7ECF94FF4FA60FDF764FE92
:103B8000FFF756F940F2000040F2C804C2F200000C
:103B900045F2260845F23306C2F200044FF0640AEB
:103BA00000F10805C0F6000800F12807C0F600067D
:103BB00000200021FFF7B4F96069414600FB0AF0DC
:103BC000020B2846FCF718FB2846FFF7C1F9012035
:103BD0000021FFF7A5F9A069314600EB8000020B38
:103BE0003846FCF709FB3846FFF7B2F94846402152
:103BF000FDF74CFF0128DBD1FFF71AF90020002167
:103C0000FFF78EF945F2B900C0F60000FFF7A0F902
:103C10004AF6AB2745F2600845F2500A45F2700BB0
:103C2000C2F6AA27C0F60008C0F6000AC0F6000BCC
:103C3000052506E048462021FDF728FF012800F071
:103C40005F8248460821FDF721FF012812D1206834
:103C5000013080FB071202EBD27101EB4101A0EBB6
:103C600041000528206053D8DFE800F0162C343CD2
:103C7000424800BF48461021FDF708FF0128D9D16E
:103C80002068D8B101380528206041D8DFE800F06D
:103C9000041A222A303600BFFFF7CAF8002000219C
:103CA000FFF73EF945F28500C0F60000FFF750F936
:103CB00045F27A060120C0F6000623E02560FFF7F2
:103CC000D1FB25E0FFF7B4F845F2C7060020C0F6A7
:103CD000000617E0FFF7ACF845F2CF060020C0F66B
:103CE00000060FE0FFF7A4F8002046460AE000BFF8
:103CF000FFF79EF80020564604E000BFFFF798F853
:103D000000205E460021FFF70BF93046FFF720F94F
:103D10006420FDF799FD94E7FFF78AF840F2000070
:103D200040F2C804C2F2000045F2260845F233060C
:103D3000C2F200044FF0640A00F10805C0F6000862
:103D400000F12807C0F6000600200021FFF7E8F880
:103D50006069414600FB0AF0020B2846FCF74CFA6A
:103D60002846FFF7F5F801200021FFF7D9F8A069F0
:103D7000314600EB8000020B3846FCF73DFA38462E
:103D8000FFF7E6F848464021FDF780FE0128DBD129
:103D9000FFF74EF800200021FFF7C2F845F2B90006
:103DA000C0F60000FFF7D4F84AF6AB2745F26008EA
:103DB00045F2500A45F2700BC2F6AA27C0F6000879
:103DC000C0F6000AC0F6000B052506E04846202193
:103DD000FDF75CFE012800F0938148460821FDF7BD
:103DE00055FE012812D12068013080FB071202EB3A
:103DF000D27101EB4101A0EB41000528206053D8AE
:103E0000DFE800F0162C343C424800BF4846102141
:103E1000FDF73CFE0128D9D12068D8B1013805282A
:103E2000206041D8DFE800F0041A222A303600BFB3
:103E3000FEF7FEFF00200021FFF772F845F2850033
:103E4000C0F60000FFF784F845F27A060120C0F6BC
:103E5000000623E02560FFF705FB25E0FEF7E8FFFD
:103E600045F2C7060020C0F6000617E0FEF7E0FFA7
:103E700045F2CF060020C0F600060FE0FEF7D8FF9F
:103E8000002046460AE000BFFEF7D2FF002056465B
:103E900004E000BFFEF7CCFF00205E460021FFF7E4
:103EA0003FF83046FFF754F86420FDF7CDFC94E767
:103EB000FEF7BEFF00200021FFF732F845F2B900FF
:103EC000C0F60000FFF744F840F2C8044AF6AB27FA
:103ED00045F2600845F2500A45F2700BC2F2000448
:103EE000C2F6AA27C0F60008C0F6000AC0F6000B0A
:103EF000052506E048462021FDF7C8FD012800F011
:103F0000FF8048460821FDF7C1FD012812D1206835
:103F1000013080FB071202EBD27101EB4101A0EBF3
:103F200041000528206053D8DFE800F0162C343C0F
:103F3000424800BF48461021FDF7A8FD0128D9D10D
:103F40002068D8B101380528206041D8DFE800F0AA
:103F5000041A222A303600BFFEF76AFF0020002133
:103F6000FEF7DEFF45F28500C0F60000FEF7F0FF29
:103F700045F27A060120C0F6000623E02560FFF72F
:103F800071FA25E0FEF754FF45F2C7060020C0F69F
:103F9000000617E0FEF74CFF45F2CF060020C0F602
:103FA00000060FE0FEF744FF002046460AE000BF8F
:103FB000FEF73EFF0020564604E000BFFEF738FF44
:103FC00000205E460021FEF7ABFF3046FEF7C0FF43
:103FD0006420FDF739FC94E7FEF72AFF002000215A
:103FE000FEF79EFF45F2B900C0F60000FEF7B0FFF5
:103FF00040F2C8044AF6AB2745F2600845F2500A81
:1040000045F2700BC2F20004C2F6AA27C0F60008FF
:10401000C0F6000AC0F6000B052506E04846202140
:10402000FDF734FD012800F06B8048460821FDF7BC
:104030002DFD012812D12068013080FB071202EB10
:10404000D27101EB4101A0EB41000528206053D85B
:10405000DFE800F0162C343C424800BF48461021EF
:10406000FDF714FD0128D9D12068D8B10138052801
:10407000206041D8DFE800F0041A222A303600BF61
:10408000FEF7D6FE00200021FEF74AFF45F285002C
:10409000C0F60000FEF75CFF45F27A060120C0F68C
:1040A000000623E02560FFF7DDF925E0FEF7C0FEFE
:1040B00045F2C7060020C0F6000617E0FEF7B8FE7E
:1040C00045F2CF060020C0F600060FE0FEF7B0FE76
:1040D000002046460AE000BFFEF7AAFE0020564632
:1040E00004E000BFFEF7A4FE00205E460021FEF7BC
:1040F00017FF3046FEF72CFF6420FDF7A5FB94E781
:104100002068FFF7FFF900BF4465767265204B61B8
:10411000706174696C6469004261736C6174696C8C
:1041200069796F72000000004261736C6174696CA0
:10413000646900004D656E75796520676563696C1B
:10414000646900004672656B616E733D20256400F2
:10415000416B696D3D202564200000005361796644
:1041600061204861746173690000000070B540F619
:104170000004C4F201040546CAB220460821FDF736
:104180008BFC04F58066C5F3C00230460221FDF7C2
:1041900083FCC5F3800230460121FDF77DFCC5F3A9
:1041A000400220468021FDF777FC05F00102204601
:1041B0004021FDF771FC204620210122FDF76CFC17
:1041C00040F2A015C2F2000528680021416200BF3C
:1041D000416A132908D8416A132905D8416A13296D
:1041E00002D8416A1429F3D320462021002200245A
:1041F000FDF752FC2868446207E000BF416A1329BA
:1042000088BF70BD416A142905D2416A132902D8BA
:10421000416A1329F2D970BD5FEA400C08BF91F0E2
:10422000000F4FEA8C234FEAC12243EA51514FEA73
:104230001C5018BF00F5F0404FEA300018BF41F0A5
:1042400000415FEA6C5C00F02980BCF1FF3F08BFD1
:1042500040F080407047130C06BF12044FF0100C62
:104260004FF0000C130E04BF12020CF1080C130FD8
:1042700004BF12010CF1040C930F04BF92000CF167
:10428000020CD30F04BF52000CF1010C11464FF089
:104290000002A0F11F00A0EB0C00704711F0004FCE
:1042A00008BF704731F000413FF4D5AF0B0C06BF9B
:1042B00009044FF0100C4FF0000C0B0E04BF090264
:1042C0000CF1080C0B0F04BF09010CF1040C8B0F4F
:1042D00004BF89000CF1020CCB0F04BF49000CF1A4
:1042E000010CCCF1200322FA03F341EA030102FAA4
:1042F0000CF2A0EB0C0000F10100704723F07F47A7
:1043000020F07F4C80EA030000F00040ACEB070394
:1043100003F57C5303F1FF032DE9804909B44FEA0B
:10432000144324EA03484FEA154B25EA0B4E0FF2DB
:10433000042606EB13273E7803FB0667C7F5000744
:1043400007FB06F64FEAD64606F102064FEA543757
:1043500007FB066CCCF1005C4FEA1C472CEA074CCB
:104360000CFB06F507FB06F404EB15464FEA961620
:1043700049085FEA320234BF00204FF000404FEAA4
:10438000D13706FB07FC4FEA1C4C0CFB0BF7D21B8A
:1043900003FB0CF761EB07010CFB0EF7B0EB0740DA
:1043A00072EB17420CFB08F734BFA2EB0742B2EBEB
:1043B000074261EB17414FEA0C444FEA910706FBB5
:1043C00007FC4FEA1C4C0CFB0BF7B0EBC74072EB41
:1043D000573203FB0CF734BFA2EBC742B2EBC74224
:1043E00061EB57310CFB0EF7B0EBC70072EB577265
:1043F0000CFB08F734BFA2EBC702B2EBC70261EBBC
:1044000057714FEA816141EA92114FEA826242EAB2
:1044100090124FEA806004EBCC04039F4FEAD1373F
:1044200006FB07FC4FEA1C4C0CFB0BF7D21B03FBF3
:104430000CF761EB07010CFB0EF7B0EB074072EBDA
:1044400017420CFB08F734BFA2EB0742B2EB07425E
:1044500061EB17414FEA8C5504EB9C244FEA91071E
:1044600006FB07FC4FEA1C4C0CFB0BF7B0EBC740FC
:1044700072EB573203FB0CF734BFA2EBC742B2EB2F
:10448000C74261EB57310CFB0EF7B0EBC70072EB84
:1044900057720CFB08F734BFA2EBC702B2EBC7029E
:1044A00061EB57714FEA816141EA92114FEA8262F2
:1044B00042EA90124FEA806015EB4C2544F100046B
:1044C0004FEAD13706FB07FC4FEA1C4C0CFB0BF7FD
:1044D000D21B03FB0CF761EB07010CFB0EF7B0EBF3
:1044E000074072EB17420CFB08F734BFA2EB074200
:1044F000B2EB074261EB17414FEA813141EA924149
:104500004FEA823242EA90424FEA80304FEA0C761C
:1045100015EB1C1544F1000448EA03434EEA0B482E
:104520004FF0000EB2EB080C71EB030724BF62469C
:1045300039464EEB0E0E4FF0000B00185241494128
:104540004BEB0B0BB2EB080C71EB03077BF1000B91
:1045500024BF624639464EEB0E0E4FF0000B00189A
:10456000524149414BEB0B0BB2EB080C71EB0307CB
:104570007BF1000B24BF624639464EEB0E0E51EA2A
:10458000020718BF46F0010616EB0E7655F1000241
:1045900054F1000103D5BDE88901BDE80088BDE8FC
:1045A0008901BDE80048B619524141EB0101A3F170
:1045B0000103704780807F7E7D7C7B7A7978777677
:1045C00076757473727171706F6E6E6D6C6C6B6AF0
:1045D0006A6968686766666564646363626161608E
:1045E000605F5F5E5E5D5D5C5C5B5B5A5A5959580B
:1045F0005857575656555555545453535252525175
:10460000515050504F4F4F4E4E4D4D4D4C4C4C4BCA
:104610004B4B4A4A4A494949484848474747474611
:10462000464645454544444444434343434242424D
:10463000424141419C46002B30D477002BD04FEAB9
:1046400037071CB503B44FF010004FF01001BAF15A
:10465000000F06D0BCF1000FDCBF40F0080040F0B6
:1046600008014FF000000FBCBDE810400BF1010B3A
:10467000BBF1010F08BF5FEA170722BF12F1010269
:1046800011F101014FF0004143F1000300F000403F
:1046900043EA00007047F9D35708D0E746EA0646D8
:1046A0004FEA164613F1400F1FDD13F1200FDFBF55
:1046B00016430A46002120335B42BED0C3F12007D7
:1046C00046EA06464FEA164602FA07F746EA0706A2
:1046D00022FA03F2C3F1200701FA07F742EA0702C0
:1046E00021FA03F14FF00003A7E746EA020646EA83
:1046F00006464FEA164646EA0106BCBF46EA0646AB
:10470000360C4FF000034FF000024FF0000194E729
:104710002DE9804C70B49A46934691E8380007C85A
:1047200031EA400C48BF34EA430C03D5FFF7E6FDFD
:10473000FFF780FFF0BCBDE8008C2DE9804C70B421
:104740009A46934691E8380007C810F0804F08BF9A
:1047500013F0804F03D100F005F8FFF76BFFF0BCBA
:10476000BDE8008C20F07F4723F07F4C80EA0300F7
:1047700000F0004007EB0C03A3F57C53A3F1FE030C
:1047800092F0000F00F0B38095F0000F00F07780FA
:104790002DE901494FEA114021EA00484FEA144649
:1047A00024EA064700FB06FC08FB06F607FB08F8B0
:1047B00018EB06484CEB164C00FB07F718EB0748C4
:1047C0004CEB17404FEA124B22EA0B4E4FEA1546CC
:1047D00025EA06470BFB06FC0EFB06F607FB0EFE62
:1047E0001EEB064E4CEB164C0BFB07F71EEB074E71
:1047F0004CEB174B18EB0B0840F1000018EB0E0BBD
:1048000058EB000840F100008F1A4FF000014FF004
:1048100000063CBFC943661B14BFB5EB040C002166
:104820003CBFC943F61B4FEA174427EA04454FEA49
:104830001C472CEA074C04FB076205FB07F70CFB3F
:1048400005F616EB074642EB174204FB0CFC16EB91
:104850000C4642EB1C421BEB060658EB02024141A0
:104860004EEA8E0E46EA9E0601D5BDE80189B619CC
:10487000524141EB0101A3F10103BDE801894FEA77
:10488000144524EA05464FEA114721EA074C05FB87
:1048900007F406FB07F70CFB06F111EB074144EBAD
:1048A000174405FB0CFC11EB0C4144EB1C444FEA94
:1048B000124722EA074C05FB07F206FB07F70CFB41
:1048C00006F616EB074642EB174205FB0CFC16EB0F
:1048D0000C4642EB1C456A1854F1000148BF704772
:1048E000B619524141EB0101A3F10103704795F064
:1048F000000F37D04FEA114221EA02464FEA14472F
:1049000024EA074C02FB07F106FB07F70CFB06F451
:1049100014EB074441EB174102FB0CFC14EB0C4475
:1049200041EB1C414FEA154725EA074C02FB07F50E
:1049300006FB07F70CFB06F616EB074645EB17459B
:1049400002FB0CFC16EB0C4645EB1C42121951F114
:10495000000148BF7047B619524141EB0101A3F174
:10496000010370474FEA144524EA05464FEA114710
:1049700021EA074C05FB07F106FB07F70CFB06F2E3
:1049800012EB074241EB174105FB0CFC12EB0C420A
:1049900051EB1C414FF0000648BF7047921841EBA5
:1049A0000101A3F101037047490050EAC12018BF7B
:1049B00004204A0D18BF40F0010040F2FF72B2EB34
:1049C000515F08BF40F00200012808BF0520704772
:1049D00030380A2801D201207047002070470000BB
:1049E00010B500290AD00878002807D00548784477
:1049F000FCF772FA002801D0002010BD024878446C
:104A000010BD00001E0700001607000021F0004244
:104A100001F00043A2F16052B2F5801F28BFD2F12D
:104A20007F6C0BD95FEA001C43EAC20242EB507074
:104A300018BF704728BF20F001007047B2F5801FF3
:104A4000BCBF184670474FEA410C1CF5001F02D24C
:104A5000084600F068BA70B500F0B2F800000089AE
:104A6000FFF7F6BF4FF00040A0F580007047000050
:104A700010B591EA030F48BF83F0004300F1FC80BA
:104A8000841A71EB030C05D2121943EB0C03001BC3
:104A900061EB0C014FEA1154A4EB135CDFF81CE14D
:104AA0001EEA430F18BF9EEA445F00F0748021EABB
:104AB000045123EA0E0343F48013DCF1200E32D3B9
:104AC00022FA0CFE10EB0E0023FA0CFE41EB0E0155
:104AD000CCF1200E03FA0EFE10EB0E00CCF1200EEE
:104AE00051F10001B1F5801F32D201EB045112FAED
:104AF0000EF2BDE8104058BF7047401C38BF5FEA57
:104B0000420218BF7047002814BF20F0010041F195
:104B100000014FEA410313F5001F38BF7047A1F1B0
:104B2000C04100F09BB8012A43EB0302ACF1200C1A
:104B3000DCF11F0E32BF4FF0000E23FA0CF310EB26
:104B4000030041EB0451B4EB115FD0D0A1EB045151
:104B500001F58011490801EB04515FEA30000ED3E2
:104B600050F1000038BF12FA0EFE08D1BDE8104027
:104B7000C9E7401C38BF5FEA4202CAD1C3E7BDE8BB
:104B800010404FEA410313F5001F38BF7047A1F1F1
:104B9000C04100F063B89EEA445F08D011EA5E0F9E
:104BA000BDE8104004BF01F0004100207047BDE89F
:104BB000104070B500F004F864FBBE3E0000E0FF5A
:104BC0000EF1020E2EF0030E5EF8046B364205D491
:104BD000012A43EB030515F5001F12D8012841EB0C
:104BE000010C1CF5001F0CD80ED14FEAD17C0CEB48
:104BF0004C0C0CF1020C15F5001F08BF4CEBD37CDC
:104C000004E04FF0080C01E04FEAD37C0CEB4C05BC
:104C100026FA05F606F00706B6F1040C06D20EEBEE
:104C2000860CBDE870404CF0010C6047DFE80CF0EA
:104C3000090B02024FF00041A1F500214FF00000E6
:104C400070BD19461046012851EB010418BFD4F578
:104C5000001484BF002001F0004170BD0808A0F5D9
:104C600000114FEA3101704710B591EA030F48BFB8
:104C700083F000433FF504AF841A71EB030C07D2B5
:104C80008CF0004C121943EB0C03001B61EB0C0180
:104C90004FEA1154A4EB135CDFF8A4E11EEA430FC2
:104CA00018BF9EEA445F00F0B48021EA045123EA71
:104CB0006E035242C3EB6E0338BF5B1EDCF1200E65
:104CC00025D322FA0CFE10EB0E0043FA0CFE41EB4A
:104CD0000E01CCF1200E03FA0EFE10EB0E00CCF10B
:104CE000200E51F1000129D401EB045112FA0EF209
:104CF000BDE8104058BF7047401C1CBFB2F1004FC8
:104D0000704700280CBF491C20F00100704712EBCF
:104D1000020E43EB030218BF4FF0010E4EEA4202AF
:104D2000ACF1200CDCF11E0E56D943FA0CFE10EB50
:104D30000E00CCF11E0E51F1FF31D5D50EF1010E52
:104D400012FA0EFE404141EB010101EB445C5FEAC7
:104D50005C5C10D901EB045110EBDE7038BFBEF182
:104D6000004FBDE8104018BF704700280CBF491C19
:104D700020F00100704734D24FEAD42C24F40064B0
:104D800011F500111BD0B1FA81F20B3AA41AA41E3E
:104D9000D2F12003914030FA03F31943904001EB24
:104DA000CC7101EB0451002CBDE81040A8BF704746
:104DB00001F1C04101F000414FF000007047B0FA2E
:104DC00080F310FA03F102D1BDE810407047E41AF5
:104DD000173C4805C90AE2E701EB0451BDE8104061
:104DE000704749104FEA300001EB0451BDE8104014
:104DF00002E04FF0000170474A0008BF0042F8D0BF
:104E0000B2F5001F28BF704701F000414FF00000CD
:104E100070479EEA445F07D011EA5E0FBDE810407C
:104E200004BF002100207047BDE8104070B5FFF7B7
:104E3000C7FE00BF40DFF63E104683F000417047DA
:104E40000000E0FF43004FEAD30C4FEA3C0C434024
:104E50001FBF40070CF1605113F0FE4F70471CF06C
:104E6000006F03D10CF00041002070470CF00043AC
:104E700043EA507040EACC0010B500F00EF800BFD5
:104E8000000000924FEA0001FFF7E8BE4FF000413A
:104E9000A1F500214FF0000070470EF1020E2EF038
:104EA000030E5EF8044B244204D44FEA4102B2F1EF
:104EB0007F4F11D84FEA4003B3F17F4F0CD80ED18A
:104EC0004FEAD07C0CEB4C0C0CF1020CB2F17F4F92
:104ED00008BF4CEBD17C04E04FF0080C01E04FEA36
:104EE000D17C0CEB4C0324FA03F404F00704B4F176
:104EF000040C06D20EEB840CBDE810404CF0010C03
:104F00006047DFE80CF0070802024FF00040A0F510
:104F1000800010BD0846420018BFD2F1807288BFE1
:104F200000F0004010BDFF2141EAD050C00570479D
:104F3000FBF7D2BBFBF706BD040000080000000031
:104F400000000002000100001030313233343536E9
:104F500037383961626364656678700030313233A6
:104F600034353637383941424344454658500000BD
:104F700002400000000000A000000000054000000A
:104F8000000000C8000000000C4000000000409C31
:104F900000000000194000000020BCBE000000001E
:104FA00034400000BFC91B8E00000004B540000063
:104FB000504BCFD06607E2CF010000006C410000EB
:104FC0003E8251AADFEEA73401000000D942000062
:104FD000DCB5A0E23A301F97FFFFFFFFB4450000A9
:104FE000FD25A0C8E9A3C14FFFFFFFFFFF3F000061
:104FF0000000008000000000FF3F00000000008073
:105000000000000000000000000000000102030496
:1050100006070809010202030405060708090A0B2E
:105020000C0D0E0F1010566F6C746167653D2025D6
:1050300064200043757272656E743D202564200003
:105040004B493D20256620004B503D202566200021
:1050500053697374656D204475726475726D610077
:1050600053697374656D204261736C61746D610086
:10507000416463204F6B756D6100416B696D206FFA
:105080006B756D61004672656B616E73206F6B7539
:105090006D610043696B697320676E640043696BDF
:1050A000697320566F6C7461676500476972697334
:1050B00020566F6C746167650043696B6973207972
:1050C0006170696C646900492041796172690050BE
:1050D00020417961726900447572647572756C75EE
:1050E000796F72004672656B616E7300285100081B
:1050F000000000206800000028010008905100080E
:105100006800002088070000440100081C0000001F
:1051100043000000F8FFFFFF0C0000000E0000003D
:105120000F0000002E0000000000803FCDCCCC3DE1
:10513000200000000000000000000000000000004F
:10514000200000000000000000000000000000003F
:10515000200000000000000000000000000000002F
:10516000200000000000000000000000000000001F
:10517000200000000000000000000000000000000F
:1051800001000000100000000024F40000000000F6
:04000005080000ED02
:00000001FF
